{
  "address": "0x194358A9525601c1E2Aa8d84a96ff76D18B706b7",
  "abi": [
    {
      "inputs": [],
      "stateMutability": "nonpayable",
      "type": "constructor"
    },
    {
      "anonymous": false,
      "inputs": [
        {
          "indexed": true,
          "internalType": "address",
          "name": "wallet",
          "type": "address"
        },
        {
          "indexed": true,
          "internalType": "address",
          "name": "operator",
          "type": "address"
        },
        {
          "indexed": true,
          "internalType": "uint256",
          "name": "tokenId",
          "type": "uint256"
        }
      ],
      "name": "Approval",
      "type": "event"
    },
    {
      "anonymous": false,
      "inputs": [
        {
          "indexed": true,
          "internalType": "address",
          "name": "wallet",
          "type": "address"
        },
        {
          "indexed": true,
          "internalType": "address",
          "name": "operator",
          "type": "address"
        },
        {
          "indexed": false,
          "internalType": "bool",
          "name": "approved",
          "type": "bool"
        }
      ],
      "name": "ApprovalForAll",
      "type": "event"
    },
    {
      "anonymous": false,
      "inputs": [
        {
          "indexed": true,
          "internalType": "address",
          "name": "from",
          "type": "address"
        },
        {
          "indexed": true,
          "internalType": "address",
          "name": "to",
          "type": "address"
        },
        {
          "indexed": true,
          "internalType": "uint256",
          "name": "tokenId",
          "type": "uint256"
        }
      ],
      "name": "Transfer",
      "type": "event"
    },
    {
      "stateMutability": "nonpayable",
      "type": "fallback"
    },
    {
      "inputs": [
        {
          "internalType": "address",
          "name": "to",
          "type": "address"
        },
        {
          "internalType": "uint256",
          "name": "tokenId",
          "type": "uint256"
        }
      ],
      "name": "approve",
      "outputs": [],
      "stateMutability": "nonpayable",
      "type": "function"
    },
    {
      "inputs": [
        {
          "internalType": "uint256",
          "name": "tokenId",
          "type": "uint256"
        }
      ],
      "name": "arweaveURI",
      "outputs": [
        {
          "internalType": "string",
          "name": "",
          "type": "string"
        }
      ],
      "stateMutability": "view",
      "type": "function"
    },
    {
      "inputs": [
        {
          "internalType": "address",
          "name": "wallet",
          "type": "address"
        }
      ],
      "name": "balanceOf",
      "outputs": [
        {
          "internalType": "uint256",
          "name": "",
          "type": "uint256"
        }
      ],
      "stateMutability": "view",
      "type": "function"
    },
    {
      "inputs": [],
      "name": "baseURI",
      "outputs": [
        {
          "internalType": "string",
          "name": "",
          "type": "string"
        }
      ],
      "stateMutability": "view",
      "type": "function"
    },
    {
      "inputs": [
        {
          "internalType": "uint256",
          "name": "tokenId",
          "type": "uint256"
        }
      ],
      "name": "burn",
      "outputs": [],
      "stateMutability": "nonpayable",
      "type": "function"
    },
    {
      "inputs": [],
      "name": "contractURI",
      "outputs": [
        {
          "internalType": "string",
          "name": "",
          "type": "string"
        }
      ],
      "stateMutability": "view",
      "type": "function"
    },
    {
      "inputs": [
        {
          "internalType": "uint256",
          "name": "tokenId",
          "type": "uint256"
        }
      ],
      "name": "creator",
      "outputs": [
        {
          "internalType": "address",
          "name": "",
          "type": "address"
        }
      ],
      "stateMutability": "view",
      "type": "function"
    },
    {
      "inputs": [
        {
          "internalType": "uint256",
          "name": "id",
          "type": "uint256"
        },
        {
          "components": [
            {
              "internalType": "bytes32",
              "name": "payloadHash",
              "type": "bytes32"
            },
            {
              "components": [
                {
                  "internalType": "bytes32",
                  "name": "r",
                  "type": "bytes32"
                },
                {
                  "internalType": "bytes32",
                  "name": "s",
                  "type": "bytes32"
                },
                {
                  "internalType": "uint8",
                  "name": "v",
                  "type": "uint8"
                }
              ],
              "internalType": "struct Verification",
              "name": "payloadSignature",
              "type": "tuple"
            },
            {
              "internalType": "address",
              "name": "creator",
              "type": "address"
            },
            {
              "internalType": "bytes32",
              "name": "arweave",
              "type": "bytes32"
            },
            {
              "internalType": "bytes11",
              "name": "arweave2",
              "type": "bytes11"
            },
            {
              "internalType": "bytes32",
              "name": "ipfs",
              "type": "bytes32"
            },
            {
              "internalType": "bytes14",
              "name": "ipfs2",
              "type": "bytes14"
            }
          ],
          "internalType": "struct TokenData",
          "name": "tokenData",
          "type": "tuple"
        }
      ],
      "name": "cxipMint",
      "outputs": [
        {
          "internalType": "uint256",
          "name": "",
          "type": "uint256"
        }
      ],
      "stateMutability": "nonpayable",
      "type": "function"
    },
    {
      "inputs": [
        {
          "internalType": "uint256",
          "name": "tokenId",
          "type": "uint256"
        }
      ],
      "name": "getApproved",
      "outputs": [
        {
          "internalType": "address",
          "name": "",
          "type": "address"
        }
      ],
      "stateMutability": "view",
      "type": "function"
    },
    {
      "inputs": [
        {
          "internalType": "uint256",
          "name": "tokenId",
          "type": "uint256"
        }
      ],
      "name": "httpURI",
      "outputs": [
        {
          "internalType": "string",
          "name": "",
          "type": "string"
        }
      ],
      "stateMutability": "view",
      "type": "function"
    },
    {
      "inputs": [
        {
          "internalType": "address",
          "name": "newOwner",
          "type": "address"
        },
        {
          "components": [
            {
              "internalType": "bytes32",
              "name": "name",
              "type": "bytes32"
            },
            {
              "internalType": "bytes32",
              "name": "name2",
              "type": "bytes32"
            },
            {
              "internalType": "bytes32",
              "name": "symbol",
              "type": "bytes32"
            },
            {
              "internalType": "address",
              "name": "royalties",
              "type": "address"
            },
            {
              "internalType": "uint96",
              "name": "bps",
              "type": "uint96"
            }
          ],
          "internalType": "struct CollectionData",
          "name": "collectionData",
          "type": "tuple"
        }
      ],
      "name": "init",
      "outputs": [],
      "stateMutability": "nonpayable",
      "type": "function"
    },
    {
      "inputs": [
        {
          "internalType": "uint256",
          "name": "tokenId",
          "type": "uint256"
        }
      ],
      "name": "ipfsURI",
      "outputs": [
        {
          "internalType": "string",
          "name": "",
          "type": "string"
        }
      ],
      "stateMutability": "view",
      "type": "function"
    },
    {
      "inputs": [
        {
          "internalType": "address",
          "name": "wallet",
          "type": "address"
        },
        {
          "internalType": "address",
          "name": "operator",
          "type": "address"
        }
      ],
      "name": "isApprovedForAll",
      "outputs": [
        {
          "internalType": "bool",
          "name": "",
          "type": "bool"
        }
      ],
      "stateMutability": "view",
      "type": "function"
    },
    {
      "inputs": [
        {
          "internalType": "address",
          "name": "wallet",
          "type": "address"
        }
      ],
      "name": "isOwner",
      "outputs": [
        {
          "internalType": "bool",
          "name": "",
          "type": "bool"
        }
      ],
      "stateMutability": "view",
      "type": "function"
    },
    {
      "inputs": [],
      "name": "isOwner",
      "outputs": [
        {
          "internalType": "bool",
          "name": "",
          "type": "bool"
        }
      ],
      "stateMutability": "view",
      "type": "function"
    },
    {
      "inputs": [],
      "name": "name",
      "outputs": [
        {
          "internalType": "string",
          "name": "",
          "type": "string"
        }
      ],
      "stateMutability": "view",
      "type": "function"
    },
    {
      "inputs": [
        {
          "internalType": "address",
          "name": "",
          "type": "address"
        },
        {
          "internalType": "address",
          "name": "",
          "type": "address"
        },
        {
          "internalType": "uint256",
          "name": "",
          "type": "uint256"
        },
        {
          "internalType": "bytes",
          "name": "",
          "type": "bytes"
        }
      ],
      "name": "onERC721Received",
      "outputs": [
        {
          "internalType": "bytes4",
          "name": "",
          "type": "bytes4"
        }
      ],
      "stateMutability": "pure",
      "type": "function"
    },
    {
      "inputs": [],
      "name": "owner",
      "outputs": [
        {
          "internalType": "address",
          "name": "",
          "type": "address"
        }
      ],
      "stateMutability": "view",
      "type": "function"
    },
    {
      "inputs": [
        {
          "internalType": "uint256",
          "name": "tokenId",
          "type": "uint256"
        }
      ],
      "name": "ownerOf",
      "outputs": [
        {
          "internalType": "address",
          "name": "",
          "type": "address"
        }
      ],
      "stateMutability": "view",
      "type": "function"
    },
    {
      "inputs": [
        {
          "internalType": "uint256",
          "name": "tokenId",
          "type": "uint256"
        }
      ],
      "name": "payloadHash",
      "outputs": [
        {
          "internalType": "bytes32",
          "name": "",
          "type": "bytes32"
        }
      ],
      "stateMutability": "view",
      "type": "function"
    },
    {
      "inputs": [
        {
          "internalType": "uint256",
          "name": "tokenId",
          "type": "uint256"
        }
      ],
      "name": "payloadSignature",
      "outputs": [
        {
          "components": [
            {
              "internalType": "bytes32",
              "name": "r",
              "type": "bytes32"
            },
            {
              "internalType": "bytes32",
              "name": "s",
              "type": "bytes32"
            },
            {
              "internalType": "uint8",
              "name": "v",
              "type": "uint8"
            }
          ],
          "internalType": "struct Verification",
          "name": "",
          "type": "tuple"
        }
      ],
      "stateMutability": "view",
      "type": "function"
    },
    {
      "inputs": [
        {
          "internalType": "uint256",
          "name": "tokenId",
          "type": "uint256"
        }
      ],
      "name": "payloadSigner",
      "outputs": [
        {
          "internalType": "address",
          "name": "",
          "type": "address"
        }
      ],
      "stateMutability": "view",
      "type": "function"
    },
    {
      "inputs": [
        {
          "internalType": "address",
          "name": "from",
          "type": "address"
        },
        {
          "internalType": "address",
          "name": "to",
          "type": "address"
        },
        {
          "internalType": "uint256",
          "name": "tokenId",
          "type": "uint256"
        }
      ],
      "name": "safeTransferFrom",
      "outputs": [],
      "stateMutability": "payable",
      "type": "function"
    },
    {
      "inputs": [
        {
          "internalType": "address",
          "name": "from",
          "type": "address"
        },
        {
          "internalType": "address",
          "name": "to",
          "type": "address"
        },
        {
          "internalType": "uint256",
          "name": "tokenId",
          "type": "uint256"
        },
        {
          "internalType": "bytes",
          "name": "",
          "type": "bytes"
        }
      ],
      "name": "safeTransferFrom",
      "outputs": [],
      "stateMutability": "payable",
      "type": "function"
    },
    {
      "inputs": [
        {
          "internalType": "address",
          "name": "to",
          "type": "address"
        },
        {
          "internalType": "bool",
          "name": "approved",
          "type": "bool"
        }
      ],
      "name": "setApprovalForAll",
      "outputs": [],
      "stateMutability": "nonpayable",
      "type": "function"
    },
    {
      "inputs": [
        {
          "internalType": "bytes32",
          "name": "newName",
          "type": "bytes32"
        },
        {
          "internalType": "bytes32",
          "name": "newName2",
          "type": "bytes32"
        }
      ],
      "name": "setName",
      "outputs": [],
      "stateMutability": "nonpayable",
      "type": "function"
    },
    {
      "inputs": [
        {
          "internalType": "bytes32",
          "name": "newSymbol",
          "type": "bytes32"
        }
      ],
      "name": "setSymbol",
      "outputs": [],
      "stateMutability": "nonpayable",
      "type": "function"
    },
    {
      "inputs": [
        {
          "internalType": "bytes4",
          "name": "interfaceId",
          "type": "bytes4"
        }
      ],
      "name": "supportsInterface",
      "outputs": [
        {
          "internalType": "bool",
          "name": "",
          "type": "bool"
        }
      ],
      "stateMutability": "view",
      "type": "function"
    },
    {
      "inputs": [],
      "name": "symbol",
      "outputs": [
        {
          "internalType": "string",
          "name": "",
          "type": "string"
        }
      ],
      "stateMutability": "view",
      "type": "function"
    },
    {
      "inputs": [
        {
          "internalType": "uint256",
          "name": "index",
          "type": "uint256"
        }
      ],
      "name": "tokenByIndex",
      "outputs": [
        {
          "internalType": "uint256",
          "name": "",
          "type": "uint256"
        }
      ],
      "stateMutability": "view",
      "type": "function"
    },
    {
      "inputs": [
        {
          "internalType": "address",
          "name": "wallet",
          "type": "address"
        },
        {
          "internalType": "uint256",
          "name": "index",
          "type": "uint256"
        }
      ],
      "name": "tokenOfOwnerByIndex",
      "outputs": [
        {
          "internalType": "uint256",
          "name": "",
          "type": "uint256"
        }
      ],
      "stateMutability": "view",
      "type": "function"
    },
    {
      "inputs": [
        {
          "internalType": "uint256",
          "name": "tokenId",
          "type": "uint256"
        }
      ],
      "name": "tokenURI",
      "outputs": [
        {
          "internalType": "string",
          "name": "",
          "type": "string"
        }
      ],
      "stateMutability": "view",
      "type": "function"
    },
    {
      "inputs": [
        {
          "internalType": "address",
          "name": "wallet",
          "type": "address"
        }
      ],
      "name": "tokensOfOwner",
      "outputs": [
        {
          "internalType": "uint256[]",
          "name": "",
          "type": "uint256[]"
        }
      ],
      "stateMutability": "view",
      "type": "function"
    },
    {
      "inputs": [],
      "name": "totalSupply",
      "outputs": [
        {
          "internalType": "uint256",
          "name": "",
          "type": "uint256"
        }
      ],
      "stateMutability": "view",
      "type": "function"
    },
    {
      "inputs": [
        {
          "internalType": "address",
          "name": "from",
          "type": "address"
        },
        {
          "internalType": "address",
          "name": "to",
          "type": "address"
        },
        {
          "internalType": "uint256",
          "name": "tokenId",
          "type": "uint256"
        }
      ],
      "name": "transferFrom",
      "outputs": [],
      "stateMutability": "payable",
      "type": "function"
    },
    {
      "inputs": [
        {
          "internalType": "address",
          "name": "from",
          "type": "address"
        },
        {
          "internalType": "address",
          "name": "to",
          "type": "address"
        },
        {
          "internalType": "uint256",
          "name": "tokenId",
          "type": "uint256"
        },
        {
          "internalType": "bytes",
          "name": "",
          "type": "bytes"
        }
      ],
      "name": "transferFrom",
      "outputs": [],
      "stateMutability": "payable",
      "type": "function"
    },
    {
      "inputs": [
        {
          "internalType": "bytes32",
          "name": "hash",
          "type": "bytes32"
        },
        {
          "internalType": "bytes",
          "name": "payload",
          "type": "bytes"
        }
      ],
      "name": "verifySHA256",
      "outputs": [
        {
          "internalType": "bool",
          "name": "",
          "type": "bool"
        }
      ],
      "stateMutability": "pure",
      "type": "function"
    },
    {
      "stateMutability": "payable",
      "type": "receive"
    }
  ],
  "transactionHash": "0x3792f9a7bc238f939d774ac7c0f292d6b406daa5fb42b09958a59c9a02542919",
  "args": [],
  "numDeployments": 4,
  "solcInputHash": "5b82fc80ee4fcb56e58c513cca4d43db",
  "bytecode": "0x608060405234801561001057600080fd5b50612302806100206000396000f3fe6080604052600436106101ee5760003560e01c80634f8baacc1161011357806395d89b41116100ab578063b88d4fde1161006f578063b88d4fde14610673578063c87b56dd14610653578063e8a3d485146106a6578063e985e9c5146106bb578063f95bb91e146106db576101f5565b806395d89b411461061e578063a22cb46514610633578063a546993e14610653578063ab67aa5814610673578063b0cacd4314610686576101f5565b80634f8baacc14610513578063510b51581461024157806351e32024146105335780636352211e146105535780636c0360eb1461057357806370a08231146105885780638462151c146105be5780638da5cb5b146105eb5780638f32d59b14610609576101f5565b806323b872dd1161018657806323b872dd146103a25780632c2dadbc146103b55780632f54bf6e146104465780632f745c591461046657806342842e0e146103a257806342966c6814610486578063475a8035146104a657806349e65440146104d35780634f6ccce7146104f3576101f5565b806301ffc9a71461020c57806306ce0db81461024157806306fdde0314610292578063081812fc146102b4578063095ea7b3146102ea578063128bfa251461030a578063150b7a021461032a57806318160ddd146103635780631a5c7f9214610382576101f5565b366101f557005b34801561020157600080fd5b5061020a6106fb565b005b34801561021857600080fd5b5061022c610227366004611a0c565b61079e565b60405190151581526020015b60405180910390f35b34801561024d57600080fd5b5061027a61025c366004611a36565b6000908152600c60205260409020600401546001600160a01b031690565b6040516001600160a01b039091168152602001610238565b34801561029e57600080fd5b506102a761091d565b6040516102389190611a7b565b3480156102c057600080fd5b5061027a6102cf366004611a36565b6000908152600860205260409020546001600160a01b031690565b3480156102f657600080fd5b5061020a610305366004611ac3565b61095d565b34801561031657600080fd5b5061020a610325366004611aef565b6109ef565b34801561033657600080fd5b50610356610345366004611b79565b630a85bd0160e11b95945050505050565b6040516102389190611bec565b34801561036f57600080fd5b50600f545b604051908152602001610238565b34801561038e57600080fd5b506102a761039d366004611a36565b610b34565b61020a6103b0366004611c01565b610bb1565b3480156103c157600080fd5b506104216103d0366004611a36565b604080516060808201835260008083526020808401829052928401819052938452600c82529282902082519384018352600181015484526002810154918401919091526003015460ff169082015290565b6040805182518152602080840151908201529181015160ff1690820152606001610238565b34801561045257600080fd5b5061022c610461366004611c42565b610bcc565b34801561047257600080fd5b50610374610481366004611ac3565b610bfe565b34801561049257600080fd5b5061020a6104a1366004611a36565b610c5f565b3480156104b257600080fd5b506103746104c1366004611a36565b6000908152600c602052604090205490565b3480156104df57600080fd5b5061020a6104ee366004611a36565b610db8565b3480156104ff57600080fd5b5061037461050e366004611a36565b610de1565b34801561051f57600080fd5b5061037461052e366004611c5f565b610e1c565b34801561053f57600080fd5b506102a761054e366004611a36565b610eb8565b34801561055f57600080fd5b5061027a61056e366004611a36565b610edc565b34801561057f57600080fd5b506102a7610f41565b34801561059457600080fd5b506103746105a3366004611c42565b6001600160a01b031660009081526009602052604090205490565b3480156105ca57600080fd5b506105de6105d9366004611c42565b610f5c565b6040516102389190611c8b565b3480156105f757600080fd5b50600e546001600160a01b031661027a565b34801561061557600080fd5b5061022c610fc8565b34801561062a57600080fd5b506102a7610ff3565b34801561063f57600080fd5b5061020a61064e366004611cdd565b611003565b34801561065f57600080fd5b506102a761066e366004611a36565b61108b565b61020a610681366004611d2c565b6110f5565b34801561069257600080fd5b5061022c6106a1366004611e0c565b611115565b3480156106b257600080fd5b506102a7611175565b3480156106c757600080fd5b5061022c6106d6366004611e58565b611190565b3480156106e757600080fd5b5061020a6106f6366004611e86565b61127a565b600073415225c0d082cb195aee69f490c218def30966da6001600160a01b03166381d1779c6040518163ffffffff1660e01b8152600401602060405180830381865afa15801561074f573d6000803e3d6000fd5b505050506040513d601f19601f820116820180604052508101906107739190611ea8565b90503660008037600080366000845af43d6000803e808015610794573d6000f35b3d6000fd5b505050565b60006301ffc9a760e01b6001600160e01b0319831614806107cf57506380ac58cd60e01b6001600160e01b03198316145b806107ea5750635b5e139f60e01b6001600160e01b03198316145b806108055750630a85bd0160e11b6001600160e01b03198316145b80610820575063e8a3d48560e01b6001600160e01b03198316145b80610908575073415225c0d082cb195aee69f490c218def30966da6001600160a01b03166381d1779c6040518163ffffffff1660e01b8152600401602060405180830381865afa158015610878573d6000803e3d6000fd5b505050506040513d601f19601f8201168201806040525081019061089c9190611ea8565b6001600160a01b03166301ffc9a7836040518263ffffffff1660e01b81526004016108c79190611bec565b602060405180830381865afa1580156108e4573d6000803e3d6000fd5b505050506040513d601f19601f820116820180604052508101906109089190611ec5565b1561091557506001919050565b506000919050565b606061092c60008001546112a9565b600154610938906112a9565b604051602001610949929190611ee2565b604051602081830303815290604052905090565b6000818152600760205260409020546001600160a01b03908116908316811480159061098e575061098e338361130d565b156107995760008281526008602052604080822080546001600160a01b0319166001600160a01b0387811691821790925591518593918516917f8c5be1e5ebec7d5bd14f71427d1e84f3dd0314c0f7b2291e5b200ac8c7c3b92591a4505050565b600d546001600160a01b031615610a495760405162461bcd60e51b815260206004820152601960248201527810d612540e88185b1c9958591e481a5b9a5d1a585b1a5e9959603a1b60448201526064015b60405180910390fd5b600d80546001600160a01b03199081163317909155600e805490911630179055806000610a768282611f53565b5030905063ea2299f86000610a916080850160608601611c42565b610aa160a0860160808701611fb8565b6040516001600160e01b031960e086901b16815260048101939093526001600160a01b0390911660248301526001600160601b03166044820152606401600060405180830381600087803b158015610af857600080fd5b505af1158015610b0c573d6000803e3d6000fd5b5050600e80546001600160a01b0319166001600160a01b039590951694909417909355505050565b6000818152600c602090815260409182902060078101546008909101549251606093610b9b9360909190911b91017568747470733a2f2f697066732e637869702e6465762f60501b815260168101929092526001600160901b031916603682015260440190565b6040516020818303038152906040529050919050565b610799838383604051806020016040528060008152506110f5565b600e546000906001600160a01b0383811691161480610bf85750600d546001600160a01b038381169116145b92915050565b6001600160a01b0382166000908152600960205260408120548210610c2257600080fd5b6001600160a01b0383166000908152600a60205260409020805483908110610c4c57610c4c611fd5565b9060005260206000200154905092915050565b610c69338261130d565b15610db5576000818152600760205260409020546001600160a01b031680610c9057600080fd5b610c9982611374565b60008281526007602052604080822080546001600160a01b0319169055518391906001600160a01b038416906000805160206122ad833981519152908390a4610ce28183611392565b60055480610cef81612001565b91505080610d0857610d03600560006119da565b610d27565b60058181548110610d1b57610d1b611fd5565b60009182526020822001555b6001600f6000828254610d3a9190612018565b9091555050506000828152600c60205260408120818155600181018290556002810182905560038101805460ff191690556004810180546001600160a01b0319169055600581018290556006810180546affffffffffffffffffffff19169055600781019190915560080180546001600160701b0319169055505b50565b610dc0610fc8565b610ddc5760405162461bcd60e51b8152600401610a409061202f565b600255565b6000610dec600f5490565b8210610df757600080fd5b60058281548110610e0a57610e0a611fd5565b90600052602060002001549050919050565b6000610e26610fc8565b610e425760405162461bcd60e51b8152600401610a409061202f565b82610e7c575b610e536004546114de565b15610e7657600160046000828254610e6b9190612062565b90915550610e489050565b60045492505b610e95610e8f60a0840160808501611c42565b846114fb565b6000838152600c602052604090208290610eaf82826120ae565b50929392505050565b6060610ec2610f41565b610ecb836115bd565b604051602001610b9b929190612172565b6000818152600760205260408120546001600160a01b031680610bf85760405162461bcd60e51b815260206004820152601c60248201527f4552433732313a20746f6b656e20646f6573206e6f74206578697374000000006044820152606401610a40565b6060610f4c30611611565b60405160200161094991906121ae565b6001600160a01b0381166000908152600a6020908152604091829020805483518184028101840190945280845260609392830182828015610fbc57602002820191906000526020600020905b815481526020019060010190808311610fa8575b50505050509050919050565b600e546000906001600160a01b0316331480610fee5750600d546001600160a01b031633145b905090565b6060610fee6000600201546112a9565b6001600160a01b038216331461107f57336000818152600b602090815260408083206001600160a01b03871680855290835292819020805460ff191686151590811790915590519081529192917f17307eab39ab6107e8899845ad3d59bd9653f200f220920489ca2b5937696c31910160405180910390a35050565b6110876121eb565b5050565b6000818152600c602090815260409182902060058101546006909101549251606093610b9b9360a89190911b91017868747470733a2f2f617277656176652e637869702e6465762f60381b815260198101929092526001600160a81b031916603982015260440190565b6110ff338361130d565b1561110f5761110f848484611625565b50505050565b6000806002848460405161112a929190612201565b602060405180830381855afa158015611147573d6000803e3d6000fd5b5050506040513d601f19601f8201168201806040525081019061116a9190612211565b909414949350505050565b606061118030611611565b604051602001610949919061222a565b6001600160a01b038083166000908152600b6020908152604080832093851683529290529081205460ff16806111e257507372617269626c655472616e7366657250726f78796001600160a01b038316145b80611273575060405163c455279160e01b81526001600160a01b038481166004830152831690736f70656e5365615472616e7366657250726f78799063c455279190602401602060405180830381865afa158015611244573d6000803e3d6000fd5b505050506040513d601f19601f820116820180604052508101906112689190611ea8565b6001600160a01b0316145b9392505050565b611282610fc8565b61129e5760405162461bcd60e51b8152600401610a409061202f565b600091909155600155565b60608160005b81156112ce57806112bf81612272565b915050600882901c91506112af565b611305846040516020016112e491815260200190565b60408051601f198184030181529190526112ff836020612018565b836116c5565b949350505050565b6000611318826114de565b61132157600080fd5b6000828152600760205260409020546001600160a01b0390811690841681148061136457506000838152600860205260409020546001600160a01b038581169116145b8061130557506113058185611190565b600090815260086020526040902080546001600160a01b0319169055565b6001600160a01b03821660009081526009602052604081208054916113b683612001565b90915550506001600160a01b038216600090815260096020908152604080832054848452600690925290912054808214611478576001600160a01b0384166000908152600a6020526040812080548490811061141457611414611fd5565b9060005260206000200154905080600a6000876001600160a01b03166001600160a01b03168152602001908152602001600020838154811061145857611458611fd5565b600091825260208083209091019290925591825260069052604090208190555b816114a3576001600160a01b0384166000908152600a6020526040812061149e916119da565b61110f565b6001600160a01b0384166000908152600a602052604090208054839081106114cd576114cd611fd5565b600091825260208220015550505050565b6000908152600760205260409020546001600160a01b0316151590565b6001600160a01b03821615806115155750611515816114de565b15611522576115226121eb565b60008181526007602052604080822080546001600160a01b0319166001600160a01b03861690811790915590518392906000805160206122ad833981519152908290a461156f82826117d2565b6001600f60008282546115829190612062565b9091555050600580546001810182556000919091527f036b6384b5eca791c62761152d0c79bb0604c104a5fb6f4eb0703f3154bb3db0015550565b6060816115e45750506040805180820190915260048152630307830360e41b602082015290565b8160005b811561160757806115f881612272565b915050600882901c91506115e8565b611305848261183e565b6060610bf8826001600160a01b03166115bd565b6000818152600760205260409020546001600160a01b03848116911614801561165657506001600160a01b03821615155b156116bd5761166481611374565b60008181526007602052604080822080546001600160a01b0319166001600160a01b0386811691821790925591518493918716916000805160206122ad83398151915291a46116b38382611392565b61079982826117d2565b6107996121eb565b6060816116d381601f612062565b10156117125760405162461bcd60e51b815260206004820152600e60248201526d736c6963655f6f766572666c6f7760901b6044820152606401610a40565b61171c8284612062565b845110156117605760405162461bcd60e51b8152602060048201526011602482015270736c6963655f6f75744f66426f756e647360781b6044820152606401610a40565b60608215801561177f57604051915060008252602082016040526117c9565b6040519150601f8416801560200281840101858101878315602002848b0101015b818310156117b85780518352602092830192016117a0565b5050858452601f01601f1916604052505b50949350505050565b6001600160a01b0382166000818152600960208181526040808420805487865260068452918520829055948452919052919061180d83612272565b90915550506001600160a01b039091166000908152600a602090815260408220805460018101825590835291200155565b6060600061184d83600261228d565b611858906002612062565b67ffffffffffffffff81111561187057611870611d16565b6040519080825280601f01601f19166020018201604052801561189a576020820181803683370190505b509050600360fc1b816000815181106118b5576118b5611fd5565b60200101906001600160f81b031916908160001a905350600f60fb1b816001815181106118e4576118e4611fd5565b60200101906001600160f81b031916908160001a905350600061190884600261228d565b611913906001612062565b90505b600181111561198b576f181899199a1a9b1b9c1cb0b131b232b360811b85600f166010811061194757611947611fd5565b1a60f81b82828151811061195d5761195d611fd5565b60200101906001600160f81b031916908160001a90535060049490941c9361198481612001565b9050611916565b5083156112735760405162461bcd60e51b815260206004820181905260248201527f537472696e67733a20686578206c656e67746820696e73756666696369656e746044820152606401610a40565b5080546000825590600052602060002090810190610db591905b80821115611a0857600081556001016119f4565b5090565b600060208284031215611a1e57600080fd5b81356001600160e01b03198116811461127357600080fd5b600060208284031215611a4857600080fd5b5035919050565b60005b83811015611a6a578181015183820152602001611a52565b8381111561110f5750506000910152565b6020815260008251806020840152611a9a816040850160208701611a4f565b601f01601f19169190910160400192915050565b6001600160a01b0381168114610db557600080fd5b60008060408385031215611ad657600080fd5b8235611ae181611aae565b946020939093013593505050565b60008082840360c0811215611b0357600080fd5b8335611b0e81611aae565b925060a0601f1982011215611b2257600080fd5b506020830190509250929050565b60008083601f840112611b4257600080fd5b50813567ffffffffffffffff811115611b5a57600080fd5b602083019150836020828501011115611b7257600080fd5b9250929050565b600080600080600060808688031215611b9157600080fd5b8535611b9c81611aae565b94506020860135611bac81611aae565b935060408601359250606086013567ffffffffffffffff811115611bcf57600080fd5b611bdb88828901611b30565b969995985093965092949392505050565b6001600160e01b031991909116815260200190565b600080600060608486031215611c1657600080fd5b8335611c2181611aae565b92506020840135611c3181611aae565b929592945050506040919091013590565b600060208284031215611c5457600080fd5b813561127381611aae565b600080828403610140811215611c7457600080fd5b83359250610120601f1982011215611b2257600080fd5b6020808252825182820181905260009190848201906040850190845b81811015611cc357835183529284019291840191600101611ca7565b50909695505050505050565b8015158114610db557600080fd5b60008060408385031215611cf057600080fd5b8235611cfb81611aae565b91506020830135611d0b81611ccf565b809150509250929050565b634e487b7160e01b600052604160045260246000fd5b60008060008060808587031215611d4257600080fd5b8435611d4d81611aae565b93506020850135611d5d81611aae565b925060408501359150606085013567ffffffffffffffff80821115611d8157600080fd5b818701915087601f830112611d9557600080fd5b813581811115611da757611da7611d16565b604051601f8201601f19908116603f01168101908382118183101715611dcf57611dcf611d16565b816040528281528a6020848701011115611de857600080fd5b82602086016020830137600060208483010152809550505050505092959194509250565b600080600060408486031215611e2157600080fd5b83359250602084013567ffffffffffffffff811115611e3f57600080fd5b611e4b86828701611b30565b9497909650939450505050565b60008060408385031215611e6b57600080fd5b8235611e7681611aae565b91506020830135611d0b81611aae565b60008060408385031215611e9957600080fd5b50508035926020909101359150565b600060208284031215611eba57600080fd5b815161127381611aae565b600060208284031215611ed757600080fd5b815161127381611ccf565b60008351611ef4818460208801611a4f565b835190830190611f08818360208801611a4f565b01949350505050565b60008135610bf881611aae565b80546001600160a01b0319166001600160a01b0392909216919091179055565b6001600160601b0381168114610db557600080fd5b813581556020820135600182015560408201356002820155600381016060830135611f7d81611aae565b611f878183611f1e565b506080830135611f9681611f3e565b81546001600160a01b031660a09190911b6001600160a01b0319161790555050565b600060208284031215611fca57600080fd5b813561127381611f3e565b634e487b7160e01b600052603260045260246000fd5b634e487b7160e01b600052601160045260246000fd5b60008161201057612010611feb565b506000190190565b60008282101561202a5761202a611feb565b500390565b60208082526019908201527821ac24a81d1031b0b63632b9103737ba1030b71037bbb732b960391b604082015260600190565b6000821982111561207557612075611feb565b500190565b600081356001600160a81b031981168114610bf857600080fd5b600081356001600160901b031981168114610bf857600080fd5b81358155602082013560018201556040820135600282015560038101606083013560ff81168082146120df57600080fd5b825460ff191617909155506121026120f960808401611f11565b60048301611f1e565b60a0820135600582015561213a61211b60c0840161207a565b600683018160a81c6affffffffffffffffffffff198254161781555050565b60e082013560078201556110876121546101008401612094565b6008830180546001600160701b03191660909290921c919091179055565b60008351612184818460208801611a4f565b602f60f81b90830190815283516121a2816001840160208801611a4f565b01600101949350505050565b7468747470733a2f2f637869702e6465762f6e66742f60581b8152600082516121de816015850160208701611a4f565b9190910160150192915050565b634e487b7160e01b600052600160045260246000fd5b8183823760009101908152919050565b60006020828403121561222357600080fd5b5051919050565b7468747470733a2f2f6e66742e637869702e6465762f60581b81526000825161225a816015850160208701611a4f565b602f60f81b6015939091019283015250601601919050565b600060001982141561228657612286611feb565b5060010190565b60008160001904831182151516156122a7576122a7611feb565b50029056feddf252ad1be2c89b69c2b068fc378daa952ba7f163c4a11628f55a4df523b3efa264697066735822122022301a3ba7d3d6ab08b5bd680fa6466f90a086cd12cc63b5f9b699b73bf9297e64736f6c634300080c0033",
  "devdoc": {
    "author": "CXIP-Labs",
    "details": "The entire logic and functionality of the smart contract is self-contained.",
    "events": {
      "Approval(address,address,uint256)": {
        "details": "Emits event that informs of address approving a third-party operator for a particular token.",
        "params": {
          "operator": "Address of the third-party operator approved for interaction.",
          "tokenId": "A specific token id that is being authorised to operator.",
          "wallet": "Address of the wallet configuring a token operator."
        }
      },
      "ApprovalForAll(address,address,bool)": {
        "details": "Emits event that informs of address approving/denying a third-party operator.",
        "params": {
          "approved": "A boolean indicating whether approval was granted or revoked.",
          "operator": "Address of the third-party operator that interacts on behalf of the wallet.",
          "wallet": "Address of the wallet configuring it's operator."
        }
      },
      "Transfer(address,address,uint256)": {
        "details": "If from is empty, it's a mint. If to is empty, it's a burn. Otherwise, it's a transfer.",
        "params": {
          "from": "Address from where token is being transfered.",
          "to": "Address to where token is being transfered.",
          "tokenId": "Token id that is being minted, Transfered, or burned."
        }
      }
    },
    "kind": "dev",
    "methods": {
      "approve(address,uint256)": {
        "details": "Requires the sender to be in the approved addresses.",
        "params": {
          "to": "The address to approve.",
          "tokenId": "The affected token."
        }
      },
      "arweaveURI(uint256)": {
        "details": "Concatenates 2 sections of the arweave URI.",
        "params": {
          "tokenId": "Id of the token."
        },
        "returns": {
          "_0": "string The URI."
        }
      },
      "balanceOf(address)": {
        "details": "Used to see total amount of tokens owned by a specific wallet.",
        "params": {
          "wallet": "Address for which to get token balance."
        },
        "returns": {
          "_0": "uint256 Returns an integer, representing total amount of tokens held by address."
        }
      },
      "baseURI()": {
        "details": "Concatenates with the CXIP domain name.",
        "returns": {
          "_0": "string the token URI."
        }
      },
      "burn(uint256)": {
        "details": "The sender must be the owner or approved.",
        "params": {
          "tokenId": "The token to burn."
        }
      },
      "constructor": {
        "details": "To make exact CREATE2 deployment possible, constructor is left empty. We utilize the \"init\" function instead."
      },
      "contractURI()": {
        "details": "Concatenates to https://nft.cxip.dev/.",
        "returns": {
          "_0": "string The URI."
        }
      },
      "creator(uint256)": {
        "details": "If the token Id doesn't exist it will return zero address.",
        "params": {
          "tokenId": "Id of the token."
        },
        "returns": {
          "_0": "address Creator's address."
        }
      },
      "cxipMint(uint256,(bytes32,(bytes32,bytes32,uint8),address,bytes32,bytes11,bytes32,bytes14))": {
        "details": "Includes event with the Arwave token URI.",
        "params": {
          "id": "The new tokenId.",
          "tokenData": "The token data for the NFT."
        },
        "returns": {
          "_0": "uint256 The new tokenId."
        }
      },
      "getApproved(uint256)": {
        "details": "Single operator set for a specific token. Usually used for one-time very specific authorisations.",
        "params": {
          "tokenId": "Token id to get approved operator for."
        },
        "returns": {
          "_0": "address Approved address for token."
        }
      },
      "httpURI(uint256)": {
        "details": "Concatenates to the baseURI.",
        "returns": {
          "_0": "string The URI."
        }
      },
      "init(address,(bytes32,bytes32,bytes32,address,uint96))": {
        "details": "Special function to allow a one time initialisation on deployment. Also configures and deploys royalties.",
        "params": {
          "collectionData": "The collection data.",
          "newOwner": "The owner of the collection."
        }
      },
      "ipfsURI(uint256)": {
        "details": "Concatenates to the IPFS domain.",
        "params": {
          "tokenId": "Id of the token."
        },
        "returns": {
          "_0": "string The URI."
        }
      },
      "isApprovedForAll(address,address)": {
        "details": "Includes references to OpenSea and Rarible marketplace proxies.",
        "params": {
          "operator": "Address of the marketplace operator.",
          "wallet": "Address of the wallet."
        },
        "returns": {
          "_0": "bool True if approved."
        }
      },
      "isOwner()": {
        "details": "The owner could also be the admin or identity contract of the owner.",
        "returns": {
          "_0": "bool True if owner."
        }
      },
      "isOwner(address)": {
        "details": "The owner could also be the admin or identity contract of the owner.",
        "returns": {
          "_0": "bool True if owner."
        }
      },
      "name()": {
        "details": "Uses two names to extend the max length of the collection name in bytes",
        "returns": {
          "_0": "string The collection name."
        }
      },
      "onERC721Received(address,address,uint256,bytes)": {
        "details": "We have this blank function in place to make sure that external contract sending in NFTs don't error out.Since it's not being used, the _operator variable is commented out to avoid compiler warnings.Since it's not being used, the _from variable is commented out to avoid compiler warnings.Since it's not being used, the _tokenId variable is commented out to avoid compiler warnings.Since it's not being used, the _data variable is commented out to avoid compiler warnings.",
        "returns": {
          "_0": "bytes4 Returns the interfaceId of onERC721Received."
        }
      },
      "owner()": {
        "details": "_owner is first set in init.",
        "returns": {
          "_0": "address Of ower."
        }
      },
      "ownerOf(uint256)": {
        "details": "The token must exist.",
        "params": {
          "tokenId": "The token to look up."
        },
        "returns": {
          "_0": "address Owner of the token."
        }
      },
      "payloadHash(uint256)": {
        "details": "Payload is used for verification.",
        "params": {
          "tokenId": "The Id of the token."
        },
        "returns": {
          "_0": "bytes32 The hash."
        }
      },
      "payloadSignature(uint256)": {
        "details": "Used for signature verification.",
        "params": {
          "tokenId": "The Id of the token."
        },
        "returns": {
          "_0": "Verification a struct containing v, r, s values of the signature."
        }
      },
      "payloadSigner(uint256)": {
        "details": "The creator signs a payload while creating the NFT.",
        "params": {
          "tokenId": "The Id of the token."
        },
        "returns": {
          "_0": "address The creator."
        }
      },
      "safeTransferFrom(address,address,uint256)": {
        "details": "Safely transfers `tokenId` token from `from` to `to`, checking first that contract recipients are aware of the ERC721 protocol to prevent tokens from being forever locked.",
        "params": {
          "from": "cannot be the zero address.",
          "to": "cannot be the zero address.",
          "tokenId": "token must exist and be owned by `from`."
        }
      },
      "safeTransferFrom(address,address,uint256,bytes)": {
        "details": "Since it's not being used, the _data variable is commented out to avoid compiler warnings. are aware of the ERC721 protocol to prevent tokens from being forever locked.",
        "params": {
          "from": "cannot be the zero address.",
          "to": "cannot be the zero address.",
          "tokenId": "token must exist and be owned by `from`."
        }
      },
      "setApprovalForAll(address,bool)": {
        "details": "Allows platforms to sell/transfer all your NFTs. Used with proxy contracts like OpenSea/Rarible.",
        "params": {
          "approved": "Turn on or off approval status.",
          "to": "The address to approve."
        }
      },
      "setName(bytes32,bytes32)": {
        "details": "The name is split in two for gas optimization.",
        "params": {
          "newName": "First part of name.",
          "newName2": "Second part of name."
        }
      },
      "setSymbol(bytes32)": {
        "details": "This is the ticker symbol for smart contract that shows up on EtherScan.",
        "params": {
          "newSymbol": "The ticker symbol to set for smart contract."
        }
      },
      "supportsInterface(bytes4)": {
        "details": "Must add new 4 byte interface Ids here to acknowledge support",
        "params": {
          "interfaceId": "ERC165 style 4 byte interfaceId."
        },
        "returns": {
          "_0": "bool True if supported."
        }
      },
      "symbol()": {
        "details": "Trims the symbol.",
        "returns": {
          "_0": "string The symbol."
        }
      },
      "tokenByIndex(uint256)": {
        "details": "Helpful for token enumeration where token id info is not yet available.",
        "params": {
          "index": "Index of token in array."
        },
        "returns": {
          "_0": "uint256 Returns the token id of token located at that index."
        }
      },
      "tokenOfOwnerByIndex(address,uint256)": {
        "details": "Helpful for wallet token enumeration where token id info is not yet available. Use in conjunction with balanceOf function.",
        "params": {
          "index": "Index of token in array.",
          "wallet": "Specific address for which to get token for."
        },
        "returns": {
          "_0": "uint256 Returns the token id of token located at that index in specified wallet."
        }
      },
      "tokenURI(uint256)": {
        "details": "Defaults the the Arweave URI",
        "params": {
          "tokenId": "The Id of the token."
        },
        "returns": {
          "_0": "string The URI."
        }
      },
      "tokensOfOwner(address)": {
        "params": {
          "wallet": "The wallet address to get tokens for."
        },
        "returns": {
          "_0": "uint256[] Returns an array of token ids owned by wallet."
        }
      },
      "totalSupply()": {
        "details": "Ignores burned tokens.",
        "returns": {
          "_0": "uint256 Returns the total number of active (not burned) tokens."
        }
      },
      "transferFrom(address,address,uint256)": {
        "details": "WARNING: Usage of this method is discouraged, use {safeTransferFrom} whenever possible.",
        "params": {
          "from": "cannot be the zero address.",
          "to": "cannot be the zero address.",
          "tokenId": "token must be owned by `from`."
        }
      },
      "transferFrom(address,address,uint256,bytes)": {
        "details": "WARNING: Usage of this method is discouraged, use {safeTransferFrom} whenever possible.Since it's not being used, the _data variable is commented out to avoid compiler warnings.",
        "params": {
          "from": "cannot be the zero address.",
          "to": "cannot be the zero address.",
          "tokenId": "token must be owned by `from`."
        }
      },
      "verifySHA256(bytes32,bytes)": {
        "details": "Uses sha256 instead of keccak.",
        "params": {
          "hash": "The hash to check.",
          "payload": "The payload prehashed."
        },
        "returns": {
          "_0": "bool True if the hashes match."
        }
      }
    },
    "stateVariables": {
      "_admin": {
        "details": "Address of admin user. Primarily used as an additional recover address."
      },
      "_allTokens": {
        "details": "Array of all token ids in collection."
      },
      "_collectionData": {
        "details": "Stores default collection data: name, symbol, and royalties."
      },
      "_currentTokenId": {
        "details": "Internal last minted token id, to allow for auto-increment."
      },
      "_operatorApprovals": {
        "details": "Usually utilised for supporting marketplace proxy wallets."
      },
      "_ownedTokens": {
        "details": "Map of array of token ids owned by a specific address."
      },
      "_ownedTokensCount": {
        "details": "Map of total tokens owner by a specific address."
      },
      "_ownedTokensIndex": {
        "details": "Map of token id to array index of _ownedTokens."
      },
      "_owner": {
        "details": "Address of contract owner. This address can run all onlyOwner functions."
      },
      "_tokenApprovals": {
        "details": "1-to-1 map of token id that was assigned an approved operator address."
      },
      "_tokenData": {
        "details": "Token data mapped by token id."
      },
      "_tokenOwner": {
        "details": "Token id to wallet (owner) address map."
      },
      "_totalTokens": {
        "details": "Simple tracker of all minted (not-burned) tokens."
      }
    },
    "title": "CXIP ERC721",
    "version": 1
  },
  "userdoc": {
    "events": {
      "Approval(address,address,uint256)": {
        "notice": "Event emitted when an address delegates power, for a token, to another address."
      },
      "ApprovalForAll(address,address,bool)": {
        "notice": "Event emitted when an address authorises an operator (third-party)."
      },
      "Transfer(address,address,uint256)": {
        "notice": "Event emitted when an token is minted, transfered, or burned."
      }
    },
    "kind": "user",
    "methods": {
      "approve(address,uint256)": {
        "notice": "Adds a new address to the token's approval list."
      },
      "arweaveURI(uint256)": {
        "notice": "Gets the URI of the NFT on Arweave."
      },
      "balanceOf(address)": {
        "notice": "Get total number of tokens owned by wallet."
      },
      "baseURI()": {
        "notice": "Get a base URI for the token."
      },
      "burn(uint256)": {
        "notice": "Burns the token."
      },
      "constructor": {
        "notice": "Constructor is empty and not utilised."
      },
      "contractURI()": {
        "notice": "Gets the URI of the NFT backup from CXIP."
      },
      "creator(uint256)": {
        "notice": "Gets the creator's address."
      },
      "cxipMint(uint256,(bytes32,(bytes32,bytes32,uint8),address,bytes32,bytes11,bytes32,bytes14))": {
        "notice": "Mints and NFT."
      },
      "getApproved(uint256)": {
        "notice": "Gets the approved address for the token."
      },
      "httpURI(uint256)": {
        "notice": "Gets the HTTP URI of the token."
      },
      "init(address,(bytes32,bytes32,bytes32,address,uint96))": {
        "notice": "Initializes the collection."
      },
      "ipfsURI(uint256)": {
        "notice": "Gets the IPFS URI"
      },
      "isApprovedForAll(address,address)": {
        "notice": "Checks if the address is approved."
      },
      "isOwner()": {
        "notice": "Check if the sender is the owner."
      },
      "isOwner(address)": {
        "notice": "Check if the address is the owner."
      },
      "name()": {
        "notice": "Gets the name of the collection."
      },
      "onERC721Received(address,address,uint256,bytes)": {
        "notice": "Empty function that is triggered by external contract on NFT transfer."
      },
      "owner()": {
        "notice": "Gets the owner's address."
      },
      "ownerOf(uint256)": {
        "notice": "Checks who the owner of a token is."
      },
      "payloadHash(uint256)": {
        "notice": "Gets the hash of the NFT data used to create it."
      },
      "payloadSignature(uint256)": {
        "notice": "Gets the signature of the signed NFT data used to create it."
      },
      "payloadSigner(uint256)": {
        "notice": "Gets the address of the creator."
      },
      "safeTransferFrom(address,address,uint256,bytes)": {
        "notice": "Safely transfers `tokenId` token from `from` to `to`, checking first that contract recipients"
      },
      "setApprovalForAll(address,bool)": {
        "notice": "Adds a new approved operator."
      },
      "setName(bytes32,bytes32)": {
        "notice": "Sets a name for the collection."
      },
      "setSymbol(bytes32)": {
        "notice": "Set a symbol for the collection."
      },
      "supportsInterface(bytes4)": {
        "notice": "Shows the interfaces the contracts support"
      },
      "symbol()": {
        "notice": "Gets the collection's symbol."
      },
      "tokenByIndex(uint256)": {
        "notice": "Get token by index instead of token id."
      },
      "tokenOfOwnerByIndex(address,uint256)": {
        "notice": "Get token from wallet by index instead of token id."
      },
      "tokenURI(uint256)": {
        "notice": "Get's the URI of the token."
      },
      "tokensOfOwner(address)": {
        "notice": "Get list of tokens owned by wallet."
      },
      "totalSupply()": {
        "notice": "Total amount of tokens in the collection."
      },
      "transferFrom(address,address,uint256)": {
        "notice": "Transfers `tokenId` token from `from` to `to`."
      },
      "transferFrom(address,address,uint256,bytes)": {
        "notice": "Transfers `tokenId` token from `from` to `to`."
      },
      "verifySHA256(bytes32,bytes)": {
        "notice": "Checks if a given hash matches a payload hash."
      }
    },
    "notice": "A smart contract for minting and managing ERC721 NFTs.",
    "version": 1
  },
  "storageLayout": {
    "storage": [
      {
        "astId": 17,
        "contract": "contracts/CxipERC721.sol:CxipERC721",
        "label": "_collectionData",
        "offset": 0,
        "slot": "0",
        "type": "t_struct(CollectionData)5180_storage"
      },
      {
        "astId": 20,
        "contract": "contracts/CxipERC721.sol:CxipERC721",
        "label": "_currentTokenId",
        "offset": 0,
        "slot": "4",
        "type": "t_uint256"
      },
      {
        "astId": 24,
        "contract": "contracts/CxipERC721.sol:CxipERC721",
        "label": "_allTokens",
        "offset": 0,
        "slot": "5",
        "type": "t_array(t_uint256)dyn_storage"
      },
      {
        "astId": 29,
        "contract": "contracts/CxipERC721.sol:CxipERC721",
        "label": "_ownedTokensIndex",
        "offset": 0,
        "slot": "6",
        "type": "t_mapping(t_uint256,t_uint256)"
      },
      {
        "astId": 34,
        "contract": "contracts/CxipERC721.sol:CxipERC721",
        "label": "_tokenOwner",
        "offset": 0,
        "slot": "7",
        "type": "t_mapping(t_uint256,t_address)"
      },
      {
        "astId": 39,
        "contract": "contracts/CxipERC721.sol:CxipERC721",
        "label": "_tokenApprovals",
        "offset": 0,
        "slot": "8",
        "type": "t_mapping(t_uint256,t_address)"
      },
      {
        "astId": 44,
        "contract": "contracts/CxipERC721.sol:CxipERC721",
        "label": "_ownedTokensCount",
        "offset": 0,
        "slot": "9",
        "type": "t_mapping(t_address,t_uint256)"
      },
      {
        "astId": 50,
        "contract": "contracts/CxipERC721.sol:CxipERC721",
        "label": "_ownedTokens",
        "offset": 0,
        "slot": "10",
        "type": "t_mapping(t_address,t_array(t_uint256)dyn_storage)"
      },
      {
        "astId": 57,
        "contract": "contracts/CxipERC721.sol:CxipERC721",
        "label": "_operatorApprovals",
        "offset": 0,
        "slot": "11",
        "type": "t_mapping(t_address,t_mapping(t_address,t_bool))"
      },
      {
        "astId": 63,
        "contract": "contracts/CxipERC721.sol:CxipERC721",
        "label": "_tokenData",
        "offset": 0,
        "slot": "12",
        "type": "t_mapping(t_uint256,t_struct(TokenData)5251_storage)"
      },
      {
        "astId": 66,
        "contract": "contracts/CxipERC721.sol:CxipERC721",
        "label": "_admin",
        "offset": 0,
        "slot": "13",
        "type": "t_address"
      },
      {
        "astId": 69,
        "contract": "contracts/CxipERC721.sol:CxipERC721",
        "label": "_owner",
        "offset": 0,
        "slot": "14",
        "type": "t_address"
      },
      {
        "astId": 72,
        "contract": "contracts/CxipERC721.sol:CxipERC721",
        "label": "_totalTokens",
        "offset": 0,
        "slot": "15",
        "type": "t_uint256"
      }
    ],
    "types": {
      "t_address": {
        "encoding": "inplace",
        "label": "address",
        "numberOfBytes": "20"
      },
      "t_array(t_uint256)dyn_storage": {
        "base": "t_uint256",
        "encoding": "dynamic_array",
        "label": "uint256[]",
        "numberOfBytes": "32"
      },
      "t_bool": {
        "encoding": "inplace",
        "label": "bool",
        "numberOfBytes": "1"
      },
      "t_bytes11": {
        "encoding": "inplace",
        "label": "bytes11",
        "numberOfBytes": "11"
      },
      "t_bytes14": {
        "encoding": "inplace",
        "label": "bytes14",
        "numberOfBytes": "14"
      },
      "t_bytes32": {
        "encoding": "inplace",
        "label": "bytes32",
        "numberOfBytes": "32"
      },
      "t_mapping(t_address,t_array(t_uint256)dyn_storage)": {
        "encoding": "mapping",
        "key": "t_address",
        "label": "mapping(address => uint256[])",
        "numberOfBytes": "32",
        "value": "t_array(t_uint256)dyn_storage"
      },
      "t_mapping(t_address,t_bool)": {
        "encoding": "mapping",
        "key": "t_address",
        "label": "mapping(address => bool)",
        "numberOfBytes": "32",
        "value": "t_bool"
      },
      "t_mapping(t_address,t_mapping(t_address,t_bool))": {
        "encoding": "mapping",
        "key": "t_address",
        "label": "mapping(address => mapping(address => bool))",
        "numberOfBytes": "32",
        "value": "t_mapping(t_address,t_bool)"
      },
      "t_mapping(t_address,t_uint256)": {
        "encoding": "mapping",
        "key": "t_address",
        "label": "mapping(address => uint256)",
        "numberOfBytes": "32",
        "value": "t_uint256"
      },
      "t_mapping(t_uint256,t_address)": {
        "encoding": "mapping",
        "key": "t_uint256",
        "label": "mapping(uint256 => address)",
        "numberOfBytes": "32",
        "value": "t_address"
      },
      "t_mapping(t_uint256,t_struct(TokenData)5251_storage)": {
        "encoding": "mapping",
        "key": "t_uint256",
        "label": "mapping(uint256 => struct TokenData)",
        "numberOfBytes": "32",
        "value": "t_struct(TokenData)5251_storage"
      },
      "t_mapping(t_uint256,t_uint256)": {
        "encoding": "mapping",
        "key": "t_uint256",
        "label": "mapping(uint256 => uint256)",
        "numberOfBytes": "32",
        "value": "t_uint256"
      },
      "t_struct(CollectionData)5180_storage": {
        "encoding": "inplace",
        "label": "struct CollectionData",
        "members": [
          {
            "astId": 5171,
            "contract": "contracts/CxipERC721.sol:CxipERC721",
            "label": "name",
            "offset": 0,
            "slot": "0",
            "type": "t_bytes32"
          },
          {
            "astId": 5173,
            "contract": "contracts/CxipERC721.sol:CxipERC721",
            "label": "name2",
            "offset": 0,
            "slot": "1",
            "type": "t_bytes32"
          },
          {
            "astId": 5175,
            "contract": "contracts/CxipERC721.sol:CxipERC721",
            "label": "symbol",
            "offset": 0,
            "slot": "2",
            "type": "t_bytes32"
          },
          {
            "astId": 5177,
            "contract": "contracts/CxipERC721.sol:CxipERC721",
            "label": "royalties",
            "offset": 0,
            "slot": "3",
            "type": "t_address"
          },
          {
            "astId": 5179,
            "contract": "contracts/CxipERC721.sol:CxipERC721",
            "label": "bps",
            "offset": 20,
            "slot": "3",
            "type": "t_uint96"
          }
        ],
        "numberOfBytes": "128"
      },
      "t_struct(TokenData)5251_storage": {
        "encoding": "inplace",
        "label": "struct TokenData",
        "members": [
          {
            "astId": 5237,
            "contract": "contracts/CxipERC721.sol:CxipERC721",
            "label": "payloadHash",
            "offset": 0,
            "slot": "0",
            "type": "t_bytes32"
          },
          {
            "astId": 5240,
            "contract": "contracts/CxipERC721.sol:CxipERC721",
            "label": "payloadSignature",
            "offset": 0,
            "slot": "1",
            "type": "t_struct(Verification)5266_storage"
          },
          {
            "astId": 5242,
            "contract": "contracts/CxipERC721.sol:CxipERC721",
            "label": "creator",
            "offset": 0,
            "slot": "4",
            "type": "t_address"
          },
          {
            "astId": 5244,
            "contract": "contracts/CxipERC721.sol:CxipERC721",
            "label": "arweave",
            "offset": 0,
            "slot": "5",
            "type": "t_bytes32"
          },
          {
            "astId": 5246,
            "contract": "contracts/CxipERC721.sol:CxipERC721",
            "label": "arweave2",
            "offset": 0,
            "slot": "6",
            "type": "t_bytes11"
          },
          {
            "astId": 5248,
            "contract": "contracts/CxipERC721.sol:CxipERC721",
            "label": "ipfs",
            "offset": 0,
            "slot": "7",
            "type": "t_bytes32"
          },
          {
            "astId": 5250,
            "contract": "contracts/CxipERC721.sol:CxipERC721",
            "label": "ipfs2",
            "offset": 0,
            "slot": "8",
            "type": "t_bytes14"
          }
        ],
        "numberOfBytes": "288"
      },
      "t_struct(Verification)5266_storage": {
        "encoding": "inplace",
        "label": "struct Verification",
        "members": [
          {
            "astId": 5261,
            "contract": "contracts/CxipERC721.sol:CxipERC721",
            "label": "r",
            "offset": 0,
            "slot": "0",
            "type": "t_bytes32"
          },
          {
            "astId": 5263,
            "contract": "contracts/CxipERC721.sol:CxipERC721",
            "label": "s",
            "offset": 0,
            "slot": "1",
            "type": "t_bytes32"
          },
          {
            "astId": 5265,
            "contract": "contracts/CxipERC721.sol:CxipERC721",
            "label": "v",
            "offset": 0,
            "slot": "2",
            "type": "t_uint8"
          }
        ],
        "numberOfBytes": "96"
      },
      "t_uint256": {
        "encoding": "inplace",
        "label": "uint256",
        "numberOfBytes": "32"
      },
      "t_uint8": {
        "encoding": "inplace",
        "label": "uint8",
        "numberOfBytes": "1"
      },
      "t_uint96": {
        "encoding": "inplace",
        "label": "uint96",
        "numberOfBytes": "12"
      }
    }
  }
}