{
  "address": "0x34ea8Cf748de8f3A9D6d7293Ecc07e690bBB7D32",
  "abi": [
    {
      "inputs": [],
      "stateMutability": "nonpayable",
      "type": "constructor"
    },
    {
      "anonymous": false,
      "inputs": [
        {
          "indexed": true,
          "internalType": "address",
          "name": "collectionCreator",
          "type": "address"
        },
        {
          "indexed": true,
          "internalType": "address",
          "name": "collectionAddress",
          "type": "address"
        },
        {
          "indexed": true,
          "internalType": "bytes32",
          "name": "salt",
          "type": "bytes32"
        }
      ],
      "name": "CollectionCreated",
      "type": "event"
    },
    {
      "inputs": [
        {
          "internalType": "bytes32",
          "name": "saltHash",
          "type": "bytes32"
        },
        {
          "internalType": "address",
          "name": "collectionCreator",
          "type": "address"
        },
        {
          "components": [
            {
              "internalType": "bytes32",
              "name": "r",
              "type": "bytes32"
            },
            {
              "internalType": "bytes32",
              "name": "s",
              "type": "bytes32"
            },
            {
              "internalType": "uint8",
              "name": "v",
              "type": "uint8"
            }
          ],
          "internalType": "struct Verification",
          "name": "verification",
          "type": "tuple"
        },
        {
          "components": [
            {
              "internalType": "bytes32",
              "name": "name",
              "type": "bytes32"
            },
            {
              "internalType": "bytes32",
              "name": "name2",
              "type": "bytes32"
            },
            {
              "internalType": "bytes32",
              "name": "symbol",
              "type": "bytes32"
            },
            {
              "internalType": "address",
              "name": "royalties",
              "type": "address"
            },
            {
              "internalType": "uint96",
              "name": "bps",
              "type": "uint96"
            }
          ],
          "internalType": "struct CollectionData",
          "name": "collectionData",
          "type": "tuple"
        },
        {
          "internalType": "bytes32",
          "name": "slot",
          "type": "bytes32"
        },
        {
          "internalType": "bytes",
          "name": "bytecode",
          "type": "bytes"
        }
      ],
      "name": "createCustomERC721Collection",
      "outputs": [
        {
          "internalType": "address",
          "name": "",
          "type": "address"
        }
      ],
      "stateMutability": "nonpayable",
      "type": "function"
    },
    {
      "inputs": [
        {
          "internalType": "bytes32",
          "name": "saltHash",
          "type": "bytes32"
        },
        {
          "internalType": "address",
          "name": "collectionCreator",
          "type": "address"
        },
        {
          "components": [
            {
              "internalType": "bytes32",
              "name": "r",
              "type": "bytes32"
            },
            {
              "internalType": "bytes32",
              "name": "s",
              "type": "bytes32"
            },
            {
              "internalType": "uint8",
              "name": "v",
              "type": "uint8"
            }
          ],
          "internalType": "struct Verification",
          "name": "verification",
          "type": "tuple"
        },
        {
          "components": [
            {
              "internalType": "bytes32",
              "name": "name",
              "type": "bytes32"
            },
            {
              "internalType": "bytes32",
              "name": "name2",
              "type": "bytes32"
            },
            {
              "internalType": "bytes32",
              "name": "symbol",
              "type": "bytes32"
            },
            {
              "internalType": "address",
              "name": "royalties",
              "type": "address"
            },
            {
              "internalType": "uint96",
              "name": "bps",
              "type": "uint96"
            }
          ],
          "internalType": "struct CollectionData",
          "name": "collectionData",
          "type": "tuple"
        }
      ],
      "name": "createERC721Collection",
      "outputs": [
        {
          "internalType": "address",
          "name": "",
          "type": "address"
        }
      ],
      "stateMutability": "nonpayable",
      "type": "function"
    },
    {
      "inputs": [
        {
          "internalType": "uint256",
          "name": "index",
          "type": "uint256"
        }
      ],
      "name": "getCollectionById",
      "outputs": [
        {
          "internalType": "address",
          "name": "",
          "type": "address"
        }
      ],
      "stateMutability": "view",
      "type": "function"
    },
    {
      "inputs": [
        {
          "internalType": "address",
          "name": "collection",
          "type": "address"
        }
      ],
      "name": "getCollectionType",
      "outputs": [
        {
          "internalType": "enum InterfaceType",
          "name": "",
          "type": "uint8"
        }
      ],
      "stateMutability": "view",
      "type": "function"
    },
    {
      "inputs": [
        {
          "internalType": "address",
          "name": "collection",
          "type": "address"
        }
      ],
      "name": "isCollectionCertified",
      "outputs": [
        {
          "internalType": "bool",
          "name": "",
          "type": "bool"
        }
      ],
      "stateMutability": "view",
      "type": "function"
    },
    {
      "inputs": [
        {
          "internalType": "address",
          "name": "",
          "type": "address"
        }
      ],
      "name": "isCollectionOpen",
      "outputs": [
        {
          "internalType": "bool",
          "name": "",
          "type": "bool"
        }
      ],
      "stateMutability": "pure",
      "type": "function"
    },
    {
      "inputs": [
        {
          "internalType": "address",
          "name": "collection",
          "type": "address"
        }
      ],
      "name": "isCollectionRegistered",
      "outputs": [
        {
          "internalType": "bool",
          "name": "",
          "type": "bool"
        }
      ],
      "stateMutability": "view",
      "type": "function"
    },
    {
      "inputs": [
        {
          "internalType": "address",
          "name": "collection",
          "type": "address"
        },
        {
          "internalType": "uint256",
          "name": "tokenId",
          "type": "uint256"
        }
      ],
      "name": "isTokenCertified",
      "outputs": [
        {
          "internalType": "bool",
          "name": "",
          "type": "bool"
        }
      ],
      "stateMutability": "view",
      "type": "function"
    },
    {
      "inputs": [
        {
          "internalType": "address",
          "name": "collection",
          "type": "address"
        },
        {
          "internalType": "uint256",
          "name": "tokenId",
          "type": "uint256"
        }
      ],
      "name": "isTokenRegistered",
      "outputs": [
        {
          "internalType": "bool",
          "name": "",
          "type": "bool"
        }
      ],
      "stateMutability": "view",
      "type": "function"
    },
    {
      "inputs": [
        {
          "internalType": "uint256",
          "name": "offset",
          "type": "uint256"
        },
        {
          "internalType": "uint256",
          "name": "length",
          "type": "uint256"
        }
      ],
      "name": "listCollections",
      "outputs": [
        {
          "internalType": "address[]",
          "name": "",
          "type": "address[]"
        }
      ],
      "stateMutability": "view",
      "type": "function"
    },
    {
      "inputs": [],
      "name": "totalCollections",
      "outputs": [
        {
          "internalType": "uint256",
          "name": "",
          "type": "uint256"
        }
      ],
      "stateMutability": "view",
      "type": "function"
    }
  ],
  "transactionHash": "0xf59cb27c105d3f40f72b77dbe9392444c4bf56dc132e103dd75768f72f542c79",
  "args": [],
  "numDeployments": 7,
  "solcInputHash": "428ba836339d7d10082732ef4c0fb8bb",
  "bytecode": "0x608060405234801561001057600080fd5b5060016000556110d7806100256000396000f3fe608060405234801561001057600080fd5b50600436106100a95760003560e01c806388e7e7661161007157806388e7e766146100de578063c3386c8114610139578063c4c36e6514610172578063dbdd85a314610192578063e547cb85146101a5578063eb6538e91461019257600080fd5b806327c0056a146100ae57806327f63b05146100de5780632b09f456146101015780634da465ff1461011557806361d9db2d14610128575b600080fd5b6100c16100bc366004610b23565b6101b8565b6040516001600160a01b0390911681526020015b60405180910390f35b6100f16100ec366004610c1f565b6104c0565b60405190151581526020016100d5565b6100f161010f366004610c1f565b50600090565b6100c1610123366004610c3c565b6104d1565b6001546040519081526020016100d5565b610165610147366004610c1f565b6001600160a01b031660009081526002602052604090205460ff1690565b6040516100d59190610ca4565b610185610180366004610ccc565b610659565b6040516100d59190610cee565b6100f16101a0366004610d3b565b61075b565b6100c16101b3366004610d67565b61076e565b60008054600214156101e55760405162461bcd60e51b81526004016101dc90610d80565b60405180910390fd5b60026000556001600160a01b03861633146102df576102c3868635602088013561021560608a0160408b01610db7565b308b8a600001358b602001358c604001358d60600160208101906102399190610c1f565b8e608001602081019061024c9190610df6565b604051606097881b6bffffffffffffffffffffffff19908116602083015296881b8716603482015260488101959095526068850193909352608884019190915290931b90911660a882015260a09190911b6001600160a01b03191660bc82015260c80160405160208183030381529060405261079e565b6102df5760405162461bcd60e51b81526004016101dc90610e11565b6000878351602085016000f560405163b305cff960e01b81526004810186905290915073415225c0d082cb195aee69f490c218def30966da9063b305cff990602401602060405180830381865afa15801561033e573d6000803e3d6000fd5b505050506040513d601f19601f820116820180604052508101906103629190610e42565b6001600160a01b0316803b806020016040519081016040528181526000908060200190933c80519060200120816001600160a01b0316803b806020016040519081016040528181526000908060200190933c80519060200120146104045760405162461bcd60e51b8152602060048201526019602482015278086b092a07440c4f2e8ca40c6dec8ca40dad2e6e6dac2e8c6d603b1b60448201526064016101dc565b60405163128bfa2560e01b81526001600160a01b0382169063128bfa2590610432908a908990600401610e5f565b600060405180830381600087803b15801561044c57600080fd5b505af1158015610460573d6000803e3d6000fd5b5050505061046f8160026109df565b87816001600160a01b0316886001600160a01b03167fdac8d7ac7572e04074c3481cf92a231efb2e6a2f1142399e90b5b656f86978c460405160405180910390a46001600055979650505050505050565b60006104cb82610a5a565b92915050565b60008054600214156104f55760405162461bcd60e51b81526004016101dc90610d80565b60026000556001600160a01b038416331461056f5761055384843560208601356105256060880160408901610db7565b3089883560208a013560408b013561054360808d0160608e01610c1f565b61024c60a08e0160808f01610df6565b61056f5760405162461bcd60e51b81526004016101dc90610e11565b60006040518061014001604052806101158152602001610f8d610115913990506000868251602084016000f560405163128bfa2560e01b81529091506001600160a01b0382169063128bfa25906105cc9089908890600401610e5f565b600060405180830381600087803b1580156105e657600080fd5b505af11580156105fa573d6000803e3d6000fd5b505050506106098160026109df565b86816001600160a01b0316876001600160a01b03167fdac8d7ac7572e04074c3481cf92a231efb2e6a2f1142399e90b5b656f86978c460405160405180910390a460016000559695505050505050565b606060006106678385610edd565b60015490915081111561067957506001545b60006106858583610ef5565b67ffffffffffffffff81111561069d5761069d610b0d565b6040519080825280602002602001820160405280156106c6578160200160208202803683370190505b5090506000855b8381101561075057600181815481106106e8576106e8610f0c565b9060005260206000200160009054906101000a90046001600160a01b031683838151811061071857610718610f0c565b6001600160a01b03909216602092830291909101909101528161073a81610f22565b925050808061074890610f22565b9150506106cd565b509095945050505050565b60006107678383610a92565b9392505050565b60006001828154811061078357610783610f0c565b6000918252602090912001546001600160a01b031692915050565b60008060008351602014156108c65760208401519150600182868989604051600081526020016040526040516107d79493929190610f3d565b6020604051602081039080840390855afa1580156107f9573d6000803e3d6000fd5b505050602060405103519050806001600160a01b0316886001600160a01b0316141561082a576001925050506109d6565b60018260405160200161083d9190610f5b565b60405160208183030381529060405280519060200120868989604051600081526020016040526040516108739493929190610f3d565b6020604051602081039080840390855afa158015610895573d6000803e3d6000fd5b505050602060405103519050806001600160a01b0316886001600160a01b031614156108c6576001925050506109d6565b600084805190602001209050600181878a8a604051600081526020016040526040516108f59493929190610f3d565b6020604051602081039080840390855afa158015610917573d6000803e3d6000fd5b505050602060405103519150816001600160a01b0316896001600160a01b0316141561094957600193505050506109d6565b8060405160200161095a9190610f5b565b604051602081830303815290604052805190602001209050600181878a8a604051600081526020016040526040516109959493929190610f3d565b6020604051602081039080840390855afa1580156109b7573d6000803e3d6000fd5b5050604051601f1901516001600160a01b038b81169116149450505050505b95945050505050565b6001805480820182557fb10e2d527612073b26eecdfd717e6a320cf44b4afac2b0732d9fcbe2b7fa0cf60180546001600160a01b0319166001600160a01b03851690811790915560009081526002602052604090208054839260ff1990911690836003811115610a5157610a51610c8e565b02179055505050565b6000806001600160a01b03831660009081526002602052604090205460ff166003811115610a8a57610a8a610c8e565b141592915050565b6000806001600160a01b03841660009081526002602052604090205460ff166003811115610ac257610ac2610c8e565b14159392505050565b6001600160a01b0381168114610ae057600080fd5b50565b600060608284031215610af557600080fd5b50919050565b600060a08284031215610af557600080fd5b634e487b7160e01b600052604160045260246000fd5b6000806000806000806101808789031215610b3d57600080fd5b863595506020870135610b4f81610acb565b9450610b5e8860408901610ae3565b9350610b6d8860a08901610afb565b9250610140870135915061016087013567ffffffffffffffff80821115610b9357600080fd5b818901915089601f830112610ba757600080fd5b813581811115610bb957610bb9610b0d565b604051601f8201601f19908116603f01168101908382118183101715610be157610be1610b0d565b816040528281528c6020848701011115610bfa57600080fd5b8260208601602083013760006020848301015280955050505050509295509295509295565b600060208284031215610c3157600080fd5b813561076781610acb565b6000806000806101408587031215610c5357600080fd5b843593506020850135610c6581610acb565b9250610c748660408701610ae3565b9150610c838660a08701610afb565b905092959194509250565b634e487b7160e01b600052602160045260246000fd5b6020810160048310610cc657634e487b7160e01b600052602160045260246000fd5b91905290565b60008060408385031215610cdf57600080fd5b50508035926020909101359150565b6020808252825182820181905260009190848201906040850190845b81811015610d2f5783516001600160a01b031683529284019291840191600101610d0a565b50909695505050505050565b60008060408385031215610d4e57600080fd5b8235610d5981610acb565b946020939093013593505050565b600060208284031215610d7957600080fd5b5035919050565b6020808252601f908201527f5265656e7472616e637947756172643a207265656e7472616e742063616c6c00604082015260600190565b600060208284031215610dc957600080fd5b813560ff8116811461076757600080fd5b80356001600160601b0381168114610df157600080fd5b919050565b600060208284031215610e0857600080fd5b61076782610dda565b602080825260179082015276435849503a20696e76616c6964207369676e617475726560481b604082015260600190565b600060208284031215610e5457600080fd5b815161076781610acb565b600060c08201905060018060a01b0380851683528335602084015260208401356040840152604084013560608401526060840135610e9c81610acb565b818116608085015250506001600160601b03610eba60808501610dda565b1660a08301529392505050565b634e487b7160e01b600052601160045260246000fd5b60008219821115610ef057610ef0610ec7565b500190565b600082821015610f0757610f07610ec7565b500390565b634e487b7160e01b600052603260045260246000fd5b6000600019821415610f3657610f36610ec7565b5060010190565b93845260ff9290921660208401526040830152606082015260800190565b7f19457468657265756d205369676e6564204d6573736167653a0a3332000000008152601c810191909152603c019056fe608060405234801561001057600080fd5b5060f68061001f6000396000f3fe60806040819052632c5feccb60e11b815260009073415225c0d082cb195aee69f490c218def30966da906358bfd99690608490602090600481865afa158015604b573d6000803e3d6000fd5b505050506040513d601f19601f82011682018060405250810190606d91906092565b90503660008037600080366000845af43d6000803e808015608d573d6000f35b3d6000fd5b60006020828403121560a357600080fd5b81516001600160a01b038116811460b957600080fd5b939250505056fea26469706673582212207e3850d5f5eaab2151a5f3470e98fd3411f6eec0c0f906020ffeecad3294dabd64736f6c634300080c0033a26469706673582212205dd68c34d02b2496e237bac7b0666d10fbc7f238eb0b4daaa6bcdb1a258e330964736f6c634300080c0033",
  "devdoc": {
    "author": "CXIP-Labs",
    "details": "For a CXIP Identity to be valid, it needs to be made through CXIP Provenance.",
    "events": {
      "CollectionCreated(address,address,bytes32)": {
        "details": "Allows off-chain services to index the newly deployed collection address.",
        "params": {
          "collectionAddress": "Address of the newly created collection.",
          "collectionCreator": "Address of the collection creator (msg.sender).",
          "salt": "A salt used for deploying a collection to a specific address."
        }
      }
    },
    "kind": "dev",
    "methods": {
      "constructor": {
        "details": "There is no data that needs to be set on first time deployment."
      },
      "createCustomERC721Collection(bytes32,address,(bytes32,bytes32,uint8),(bytes32,bytes32,bytes32,address,uint96),bytes32,bytes)": {
        "details": "Creates and associates the custom ERC721 collection with the identity.",
        "params": {
          "bytecode": "The bytecode used for deployment. Validated against slot code for abuse prevention.",
          "collectionCreator": "Specific wallet, associated with the identity, that will be marked as the creator of this collection.",
          "collectionData": "The collection data struct, with all the default collection info.",
          "saltHash": "A salt used for deploying a collection to a specific address.",
          "slot": "Hash of proxy contract slot where the source is saved in registry.",
          "verification": "Signature created by the collectionCreator wallet to validate the integrity of the collection data."
        },
        "returns": {
          "_0": "address Returns the address of the newly created collection."
        }
      },
      "createERC721Collection(bytes32,address,(bytes32,bytes32,uint8),(bytes32,bytes32,bytes32,address,uint96))": {
        "details": "Creates and associates the ERC721 collection with the identity.",
        "params": {
          "collectionCreator": "Specific wallet, associated with the identity, that will be marked as the creator of this collection.",
          "collectionData": "The collection data struct, with all the default collection info.",
          "saltHash": "A salt used for deploying a collection to a specific address.",
          "verification": "Signature created by the collectionCreator wallet to validate the integrity of the collection data."
        },
        "returns": {
          "_0": "address Returns the address of the newly created collection."
        }
      },
      "getCollectionById(uint256)": {
        "details": "This retrieves a collection by index. Don't be confused by the ID in the title.",
        "params": {
          "index": "Index of the item to get from the array."
        },
        "returns": {
          "_0": "address Returns the collection contract address at that index of array."
        }
      },
      "getCollectionType(address)": {
        "details": "Collection must be associated with identity.",
        "params": {
          "collection": "Contract address of the collection."
        },
        "returns": {
          "_0": "InterfaceType Returns an enum (uint8) of the collection interface type."
        }
      },
      "isCollectionCertified(address)": {
        "details": "Reserved function for later use. Will be used to identify if collection was heavily vetted.",
        "params": {
          "collection": "Contract address of the collection."
        },
        "returns": {
          "_0": "bool Returns true if collection is associated with the identity."
        }
      },
      "isCollectionOpen(address)": {
        "details": "For now this always returns false. Left as a placeholder for future development where shared collections might be used.Since it's not being used, the collection variable is commented out to avoid compiler warnings.",
        "returns": {
          "_0": "bool Returns true of false, to indicate if a specific collection is open/shared."
        }
      },
      "isCollectionRegistered(address)": {
        "details": "For now will only return true for collections created directly from the identity contract.",
        "params": {
          "collection": "Contract address of the collection."
        },
        "returns": {
          "_0": "bool Returns true if collection is associated with the identity."
        }
      },
      "isTokenCertified(address,uint256)": {
        "details": "Reserved function for later use. Will be used to identify if token was heavily vetted.",
        "params": {
          "collection": "Contract address of the collection.",
          "tokenId": "Id of the token."
        },
        "returns": {
          "_0": "bool Returns true if token is associated with the identity."
        }
      },
      "isTokenRegistered(address,uint256)": {
        "details": "For now will only return true for tokens created directly from the identity contract.",
        "params": {
          "collection": "Contract address of the collection.",
          "tokenId": "Id of the token."
        },
        "returns": {
          "_0": "bool Returns true if token is associated with the identity."
        }
      },
      "listCollections(uint256,uint256)": {
        "details": "Use in conjunction with the totalCollections function, for pagination.",
        "params": {
          "length": "Length of slice to return, starting from offset index.",
          "offset": "Index from where to start pagination. Start at 0."
        },
        "returns": {
          "_0": "address[] Returns a fixed length array starting from offset."
        }
      },
      "totalCollections()": {
        "details": "Use in conjunction with the listCollections, for pagination.",
        "returns": {
          "_0": "uint256 Returns the total length of collections."
        }
      }
    },
    "stateVariables": {
      "_additionalInfo": {
        "details": "Map with interface type definitions for identity created collections."
      },
      "_collectionArray": {
        "details": "Array of addresses for all collection that were created by the identity."
      },
      "_reentrancyState": {
        "details": "Reentrancy implementation from OpenZepellin. State 1 == NOT_ENDERED, State 2 == ENTERED"
      }
    },
    "title": "CXIP Provenance",
    "version": 1
  },
  "userdoc": {
    "events": {
      "CollectionCreated(address,address,bytes32)": {
        "notice": "Event emitted when a collection is created."
      }
    },
    "kind": "user",
    "methods": {
      "constructor": {
        "notice": "Constructor is empty and only reentrancy guard is implemented."
      },
      "createCustomERC721Collection(bytes32,address,(bytes32,bytes32,uint8),(bytes32,bytes32,bytes32,address,uint96),bytes32,bytes)": {
        "notice": "Create a custom ERC721 collection."
      },
      "createERC721Collection(bytes32,address,(bytes32,bytes32,uint8),(bytes32,bytes32,bytes32,address,uint96))": {
        "notice": "Create an ERC721 collection."
      },
      "getCollectionType(address)": {
        "notice": "Get the collection's Interface Type: ERC20, ERC721, ERC1155."
      },
      "isCollectionOpen(address)": {
        "notice": "Check if an identity collection is open to external minting."
      },
      "isCollectionRegistered(address)": {
        "notice": "Check if a collection is registered with identity."
      },
      "isTokenRegistered(address,uint256)": {
        "notice": "Check if a token is registered with identity."
      },
      "listCollections(uint256,uint256)": {
        "notice": "List all collections associated with this identity."
      },
      "totalCollections()": {
        "notice": "Get total number of collections associated with this identity."
      }
    },
    "notice": "A smart contract for managing and validating all of CXIP's provenance.",
    "version": 1
  },
  "storageLayout": {
    "storage": [
      {
        "astId": 1346,
        "contract": "contracts/CxipProvenance.sol:CxipProvenance",
        "label": "_reentrancyState",
        "offset": 0,
        "slot": "0",
        "type": "t_uint256"
      },
      {
        "astId": 1350,
        "contract": "contracts/CxipProvenance.sol:CxipProvenance",
        "label": "_collectionArray",
        "offset": 0,
        "slot": "1",
        "type": "t_array(t_address)dyn_storage"
      },
      {
        "astId": 1356,
        "contract": "contracts/CxipProvenance.sol:CxipProvenance",
        "label": "_additionalInfo",
        "offset": 0,
        "slot": "2",
        "type": "t_mapping(t_address,t_enum(InterfaceType)5209)"
      }
    ],
    "types": {
      "t_address": {
        "encoding": "inplace",
        "label": "address",
        "numberOfBytes": "20"
      },
      "t_array(t_address)dyn_storage": {
        "base": "t_address",
        "encoding": "dynamic_array",
        "label": "address[]",
        "numberOfBytes": "32"
      },
      "t_enum(InterfaceType)5209": {
        "encoding": "inplace",
        "label": "enum InterfaceType",
        "numberOfBytes": "1"
      },
      "t_mapping(t_address,t_enum(InterfaceType)5209)": {
        "encoding": "mapping",
        "key": "t_address",
        "label": "mapping(address => enum InterfaceType)",
        "numberOfBytes": "32",
        "value": "t_enum(InterfaceType)5209"
      },
      "t_uint256": {
        "encoding": "inplace",
        "label": "uint256",
        "numberOfBytes": "32"
      }
    }
  }
}