{
  "address": "0x8D28fEad5554Fd637aDD76Bd33d8e430Fae35e73",
  "abi": [
    {
      "inputs": [],
      "stateMutability": "nonpayable",
      "type": "constructor"
    },
    {
      "anonymous": false,
      "inputs": [
        {
          "indexed": true,
          "internalType": "address",
          "name": "contractAddress",
          "type": "address"
        },
        {
          "indexed": true,
          "internalType": "uint256",
          "name": "salt",
          "type": "uint256"
        }
      ],
      "name": "Deployed",
      "type": "event"
    },
    {
      "anonymous": false,
      "inputs": [
        {
          "indexed": true,
          "internalType": "address",
          "name": "previousOwner",
          "type": "address"
        },
        {
          "indexed": true,
          "internalType": "address",
          "name": "newOwner",
          "type": "address"
        }
      ],
      "name": "OwnershipTransferred",
      "type": "event"
    },
    {
      "inputs": [
        {
          "internalType": "bytes",
          "name": "code",
          "type": "bytes"
        },
        {
          "internalType": "uint256",
          "name": "salt",
          "type": "uint256"
        }
      ],
      "name": "deploy",
      "outputs": [],
      "stateMutability": "nonpayable",
      "type": "function"
    },
    {
      "inputs": [],
      "name": "owner",
      "outputs": [
        {
          "internalType": "address",
          "name": "",
          "type": "address"
        }
      ],
      "stateMutability": "view",
      "type": "function"
    },
    {
      "inputs": [],
      "name": "renounceOwnership",
      "outputs": [],
      "stateMutability": "nonpayable",
      "type": "function"
    },
    {
      "inputs": [
        {
          "internalType": "address",
          "name": "newOwner",
          "type": "address"
        }
      ],
      "name": "transferOwnership",
      "outputs": [],
      "stateMutability": "nonpayable",
      "type": "function"
    }
  ],
  "transactionHash": "0x5cae6c2fcad9769703cb93d4b66c830075b84a48c2a0e0f2c141117e231b16a8",
  "args": [],
  "numDeployments": 1,
  "solcInputHash": "c96beba2fafffe6939ea20bcc99ed885",
  "bytecode": "0x608060405234801561001057600080fd5b5061001a3261001f565b61006f565b600080546001600160a01b038381166001600160a01b0319831681178455604051919092169283917f8be0079c531659141344cd1fd0a4f28419497f9722a3daafe3b4186f6b6457e09190a35050565b6103ae8061007e6000396000f3fe608060405234801561001057600080fd5b506004361061004c5760003560e01c8063715018a6146100515780638da5cb5b1461005b5780639c4ae2d01461007a578063f2fde38b1461008d575b600080fd5b6100596100a0565b005b600054604080516001600160a01b039092168252519081900360200190f35b61005961008836600461025e565b6100df565b61005961009b366004610313565b61015d565b6000546001600160a01b031633146100d35760405162461bcd60e51b81526004016100ca90610343565b60405180910390fd5b6100dd60006101f8565b565b6000546001600160a01b031633146101095760405162461bcd60e51b81526004016100ca90610343565b6000818351602085016000f59050803b61012257600080fd5b60405182906001600160a01b038316907fb03c53b28e78a88e31607a27e1fa48234dce28d5d9d9ec7b295aeb02e674a1e190600090a3505050565b6000546001600160a01b031633146101875760405162461bcd60e51b81526004016100ca90610343565b6001600160a01b0381166101ec5760405162461bcd60e51b815260206004820152602660248201527f4f776e61626c653a206e6577206f776e657220697320746865207a65726f206160448201526564647265737360d01b60648201526084016100ca565b6101f5816101f8565b50565b600080546001600160a01b038381166001600160a01b0319831681178455604051919092169283917f8be0079c531659141344cd1fd0a4f28419497f9722a3daafe3b4186f6b6457e09190a35050565b634e487b7160e01b600052604160045260246000fd5b6000806040838503121561027157600080fd5b823567ffffffffffffffff8082111561028957600080fd5b818501915085601f83011261029d57600080fd5b8135818111156102af576102af610248565b604051601f8201601f19908116603f011681019083821181831017156102d7576102d7610248565b816040528281528860208487010111156102f057600080fd5b826020860160208301376000602093820184015298969091013596505050505050565b60006020828403121561032557600080fd5b81356001600160a01b038116811461033c57600080fd5b9392505050565b6020808252818101527f4f776e61626c653a2063616c6c6572206973206e6f7420746865206f776e657260408201526060019056fea2646970667358221220ce3159b1e8846589a670b91f34245d5334c34497e873ea79ede6c7d5fb49b8f464736f6c634300080c0033",
  "devdoc": {
    "author": "CXIP-Labs",
    "details": "Custom smart contract to achieve target deployment addresses via salt and create2.",
    "events": {
      "Deployed(address,uint256)": {
        "details": "Event used for transparent auditing of all smart contracts deployed for CXIP.",
        "params": {
          "contractAddress": "Address of the deployed smart contract.",
          "salt": "Salt/hash that was used in conjunction with bytecode for create2."
        }
      },
      "OwnershipTransferred(address,address)": {
        "details": "Event used for transparent auditing when another address takes ownership of the contract.",
        "params": {
          "newOwner": "Address of the new contract owner.",
          "previousOwner": "Address of the previous contract owner."
        }
      }
    },
    "kind": "dev",
    "methods": {
      "constructor": {
        "details": "No variables are passed in, owner is set to that of transaction creator."
      },
      "deploy(bytes,uint256)": {
        "details": "You can include constructor arguments at the end of your bytecode.",
        "params": {
          "code": "The entire bytecode of the smart contract to create.",
          "salt": "A salt/hash to use with create2 to deploy to a specific address."
        }
      },
      "owner()": {
        "returns": {
          "_0": "address Returns the address of the current contract owner."
        }
      },
      "renounceOwnership()": {
        "details": "Avoid using this function, unless you will never need to use this smart contract again."
      },
      "transferOwnership(address)": {
        "details": "This is irreversible, so take great care who you transfer ownership to.",
        "params": {
          "newOwner": "Address of the new owner for smart contract."
        }
      }
    },
    "stateVariables": {
      "_owner": {
        "details": "Address of contract owner. This address can run all onlyOwner functions."
      }
    },
    "title": "CXIP Factory",
    "version": 1
  },
  "userdoc": {
    "events": {
      "Deployed(address,uint256)": {
        "notice": "Event emitted when a smart contract is deployed."
      },
      "OwnershipTransferred(address,address)": {
        "notice": "Event emitted when contract ownership is transfered to another address."
      }
    },
    "kind": "user",
    "methods": {
      "constructor": {
        "notice": "Constructor is empty and not utilised."
      },
      "deploy(bytes,uint256)": {
        "notice": "Create a smart contract from the bytecode and salt."
      },
      "owner()": {
        "notice": "Get current owner of smart contract."
      },
      "renounceOwnership()": {
        "notice": "Remove owner from smart contract."
      },
      "transferOwnership(address)": {
        "notice": "Transfer ownership of smart contract to another address."
      }
    },
    "notice": "Smart contract for deploying CXIP specific contracts.",
    "version": 1
  },
  "storageLayout": {
    "storage": [
      {
        "astId": 5,
        "contract": "contracts/CxipFactory.sol:CxipFactory",
        "label": "_owner",
        "offset": 0,
        "slot": "0",
        "type": "t_address"
      }
    ],
    "types": {
      "t_address": {
        "encoding": "inplace",
        "label": "address",
        "numberOfBytes": "20"
      }
    }
  }
}