{
  "address": "0xCA73b2B26F32964922121565a394155bd0125902",
  "abi": [
    {
      "inputs": [],
      "stateMutability": "nonpayable",
      "type": "constructor"
    },
    {
      "inputs": [
        {
          "internalType": "address",
          "name": "",
          "type": "address"
        },
        {
          "internalType": "address",
          "name": "",
          "type": "address"
        },
        {
          "internalType": "uint256",
          "name": "",
          "type": "uint256"
        },
        {
          "internalType": "bytes",
          "name": "",
          "type": "bytes"
        }
      ],
      "name": "onERC721Received",
      "outputs": [
        {
          "internalType": "bytes4",
          "name": "",
          "type": "bytes4"
        }
      ],
      "stateMutability": "view",
      "type": "function"
    },
    {
      "inputs": [
        {
          "internalType": "bytes4",
          "name": "interfaceID",
          "type": "bytes4"
        }
      ],
      "name": "supportsInterface",
      "outputs": [
        {
          "internalType": "bool",
          "name": "",
          "type": "bool"
        }
      ],
      "stateMutability": "pure",
      "type": "function"
    },
    {
      "inputs": [
        {
          "internalType": "bool",
          "name": "active",
          "type": "bool"
        }
      ],
      "name": "toggleWorks",
      "outputs": [],
      "stateMutability": "nonpayable",
      "type": "function"
    },
    {
      "inputs": [
        {
          "internalType": "address payable",
          "name": "token",
          "type": "address"
        },
        {
          "internalType": "uint256",
          "name": "tokenId",
          "type": "uint256"
        },
        {
          "internalType": "address",
          "name": "to",
          "type": "address"
        }
      ],
      "name": "transferNFT",
      "outputs": [],
      "stateMutability": "nonpayable",
      "type": "function"
    }
  ],
  "transactionHash": "0x16bfb08521442064e1e368c6bff4c4ac2fb5b9b8ddf13553eec96409c54d16bf",
  "args": [],
  "numDeployments": 1,
  "solcInputHash": "5b82fc80ee4fcb56e58c513cca4d43db",
  "bytecode": "0x608060405234801561001057600080fd5b506000805460ff191660011790556103378061002d6000396000f3fe608060405234801561001057600080fd5b506004361061004c5760003560e01c806301ffc9a714610051578063150b7a021461007957806392ed8e1c146100a5578063d2f0922a146100c8575b600080fd5b61006461005f3660046101b5565b6100db565b60405190151581526020015b60405180910390f35b61008c6100873660046101fe565b610121565b6040516001600160e01b03199091168152602001610070565b6100c66100b336600461029d565b6000805460ff1916911515919091179055565b005b6100c66100d63660046102bf565b610148565b60006301ffc9a760e01b6001600160e01b03198316148061010c5750630a85bd0160e11b6001600160e01b03198316145b1561011957506001919050565b506000919050565b6000805460ff161561013b5750630a85bd0160e11b61013f565b5060005b95945050505050565b604051632142170760e11b81523060048201526001600160a01b038281166024830152604482018490528416906342842e0e90606401600060405180830381600087803b15801561019857600080fd5b505af11580156101ac573d6000803e3d6000fd5b50505050505050565b6000602082840312156101c757600080fd5b81356001600160e01b0319811681146101df57600080fd5b9392505050565b6001600160a01b03811681146101fb57600080fd5b50565b60008060008060006080868803121561021657600080fd5b8535610221816101e6565b94506020860135610231816101e6565b935060408601359250606086013567ffffffffffffffff8082111561025557600080fd5b818801915088601f83011261026957600080fd5b81358181111561027857600080fd5b89602082850101111561028a57600080fd5b9699959850939650602001949392505050565b6000602082840312156102af57600080fd5b813580151581146101df57600080fd5b6000806000606084860312156102d457600080fd5b83356102df816101e6565b92506020840135915060408401356102f6816101e6565b80915050925092509256fea26469706673582212201521a8165a1baea33fb8b70efa635b56328f4b1043a10c89c657adaf57b2028964736f6c634300080c0033",
  "devdoc": {
    "kind": "dev",
    "methods": {},
    "version": 1
  },
  "userdoc": {
    "kind": "user",
    "methods": {},
    "version": 1
  },
  "storageLayout": {
    "storage": [
      {
        "astId": 3626,
        "contract": "contracts/external/MockERC721Receiver.sol:MockERC721Receiver",
        "label": "_works",
        "offset": 0,
        "slot": "0",
        "type": "t_bool"
      }
    ],
    "types": {
      "t_bool": {
        "encoding": "inplace",
        "label": "bool",
        "numberOfBytes": "1"
      }
    }
  }
}