{
  "address": "0xa2cc5075ebd8af241aebaaf639083569a521c81c",
  "abi": [
    {
      "inputs": [],
      "stateMutability": "nonpayable",
      "type": "constructor"
    },
    {
      "stateMutability": "nonpayable",
      "type": "fallback"
    },
    {
      "inputs": [
        {
          "internalType": "address",
          "name": "newWallet",
          "type": "address"
        },
        {
          "internalType": "uint8",
          "name": "v",
          "type": "uint8"
        },
        {
          "internalType": "bytes32",
          "name": "r",
          "type": "bytes32"
        },
        {
          "internalType": "bytes32",
          "name": "s",
          "type": "bytes32"
        }
      ],
      "name": "addSignedWallet",
      "outputs": [],
      "stateMutability": "nonpayable",
      "type": "function"
    },
    {
      "inputs": [
        {
          "internalType": "address",
          "name": "newWallet",
          "type": "address"
        }
      ],
      "name": "addWallet",
      "outputs": [],
      "stateMutability": "nonpayable",
      "type": "function"
    },
    {
      "inputs": [],
      "name": "connectWallet",
      "outputs": [],
      "stateMutability": "nonpayable",
      "type": "function"
    },
    {
      "inputs": [
        {
          "internalType": "bytes32",
          "name": "saltHash",
          "type": "bytes32"
        },
        {
          "internalType": "address",
          "name": "collectionCreator",
          "type": "address"
        },
        {
          "components": [
            {
              "internalType": "bytes32",
              "name": "r",
              "type": "bytes32"
            },
            {
              "internalType": "bytes32",
              "name": "s",
              "type": "bytes32"
            },
            {
              "internalType": "uint8",
              "name": "v",
              "type": "uint8"
            }
          ],
          "internalType": "struct Verification",
          "name": "verification",
          "type": "tuple"
        },
        {
          "components": [
            {
              "internalType": "bytes32",
              "name": "name",
              "type": "bytes32"
            },
            {
              "internalType": "bytes32",
              "name": "name2",
              "type": "bytes32"
            },
            {
              "internalType": "bytes32",
              "name": "symbol",
              "type": "bytes32"
            },
            {
              "internalType": "address",
              "name": "royalties",
              "type": "address"
            },
            {
              "internalType": "uint96",
              "name": "bps",
              "type": "uint96"
            }
          ],
          "internalType": "struct CollectionData",
          "name": "collectionData",
          "type": "tuple"
        },
        {
          "internalType": "bytes32",
          "name": "slot",
          "type": "bytes32"
        },
        {
          "internalType": "bytes",
          "name": "bytecode",
          "type": "bytes"
        }
      ],
      "name": "createCustomERC721Collection",
      "outputs": [
        {
          "internalType": "address",
          "name": "",
          "type": "address"
        }
      ],
      "stateMutability": "nonpayable",
      "type": "function"
    },
    {
      "inputs": [
        {
          "internalType": "bytes32",
          "name": "saltHash",
          "type": "bytes32"
        },
        {
          "internalType": "address",
          "name": "collectionCreator",
          "type": "address"
        },
        {
          "components": [
            {
              "internalType": "bytes32",
              "name": "r",
              "type": "bytes32"
            },
            {
              "internalType": "bytes32",
              "name": "s",
              "type": "bytes32"
            },
            {
              "internalType": "uint8",
              "name": "v",
              "type": "uint8"
            }
          ],
          "internalType": "struct Verification",
          "name": "verification",
          "type": "tuple"
        },
        {
          "components": [
            {
              "internalType": "bytes32",
              "name": "name",
              "type": "bytes32"
            },
            {
              "internalType": "bytes32",
              "name": "name2",
              "type": "bytes32"
            },
            {
              "internalType": "bytes32",
              "name": "symbol",
              "type": "bytes32"
            },
            {
              "internalType": "address",
              "name": "royalties",
              "type": "address"
            },
            {
              "internalType": "uint96",
              "name": "bps",
              "type": "uint96"
            }
          ],
          "internalType": "struct CollectionData",
          "name": "collectionData",
          "type": "tuple"
        }
      ],
      "name": "createERC721Collection",
      "outputs": [
        {
          "internalType": "address",
          "name": "",
          "type": "address"
        }
      ],
      "stateMutability": "nonpayable",
      "type": "function"
    },
    {
      "inputs": [
        {
          "internalType": "address",
          "name": "collection",
          "type": "address"
        },
        {
          "internalType": "uint256",
          "name": "id",
          "type": "uint256"
        },
        {
          "components": [
            {
              "internalType": "bytes32",
              "name": "payloadHash",
              "type": "bytes32"
            },
            {
              "components": [
                {
                  "internalType": "bytes32",
                  "name": "r",
                  "type": "bytes32"
                },
                {
                  "internalType": "bytes32",
                  "name": "s",
                  "type": "bytes32"
                },
                {
                  "internalType": "uint8",
                  "name": "v",
                  "type": "uint8"
                }
              ],
              "internalType": "struct Verification",
              "name": "payloadSignature",
              "type": "tuple"
            },
            {
              "internalType": "address",
              "name": "creator",
              "type": "address"
            },
            {
              "internalType": "bytes32",
              "name": "arweave",
              "type": "bytes32"
            },
            {
              "internalType": "bytes11",
              "name": "arweave2",
              "type": "bytes11"
            },
            {
              "internalType": "bytes32",
              "name": "ipfs",
              "type": "bytes32"
            },
            {
              "internalType": "bytes14",
              "name": "ipfs2",
              "type": "bytes14"
            }
          ],
          "internalType": "struct TokenData",
          "name": "tokenData",
          "type": "tuple"
        }
      ],
      "name": "createERC721Token",
      "outputs": [
        {
          "internalType": "uint256",
          "name": "",
          "type": "uint256"
        }
      ],
      "stateMutability": "nonpayable",
      "type": "function"
    },
    {
      "inputs": [
        {
          "internalType": "address",
          "name": "wallet",
          "type": "address"
        }
      ],
      "name": "getAuthorizer",
      "outputs": [
        {
          "internalType": "address",
          "name": "",
          "type": "address"
        }
      ],
      "stateMutability": "view",
      "type": "function"
    },
    {
      "inputs": [
        {
          "internalType": "uint256",
          "name": "index",
          "type": "uint256"
        }
      ],
      "name": "getCollectionById",
      "outputs": [
        {
          "internalType": "address",
          "name": "",
          "type": "address"
        }
      ],
      "stateMutability": "view",
      "type": "function"
    },
    {
      "inputs": [
        {
          "internalType": "address",
          "name": "collection",
          "type": "address"
        }
      ],
      "name": "getCollectionType",
      "outputs": [
        {
          "internalType": "enum InterfaceType",
          "name": "",
          "type": "uint8"
        }
      ],
      "stateMutability": "view",
      "type": "function"
    },
    {
      "inputs": [],
      "name": "getWallets",
      "outputs": [
        {
          "internalType": "address[]",
          "name": "",
          "type": "address[]"
        }
      ],
      "stateMutability": "view",
      "type": "function"
    },
    {
      "inputs": [
        {
          "internalType": "address",
          "name": "wallet",
          "type": "address"
        },
        {
          "internalType": "address",
          "name": "secondaryWallet",
          "type": "address"
        }
      ],
      "name": "init",
      "outputs": [],
      "stateMutability": "nonpayable",
      "type": "function"
    },
    {
      "inputs": [
        {
          "internalType": "address",
          "name": "collection",
          "type": "address"
        }
      ],
      "name": "isCollectionCertified",
      "outputs": [
        {
          "internalType": "bool",
          "name": "",
          "type": "bool"
        }
      ],
      "stateMutability": "view",
      "type": "function"
    },
    {
      "inputs": [
        {
          "internalType": "address",
          "name": "",
          "type": "address"
        }
      ],
      "name": "isCollectionOpen",
      "outputs": [
        {
          "internalType": "bool",
          "name": "",
          "type": "bool"
        }
      ],
      "stateMutability": "pure",
      "type": "function"
    },
    {
      "inputs": [
        {
          "internalType": "address",
          "name": "collection",
          "type": "address"
        }
      ],
      "name": "isCollectionRegistered",
      "outputs": [
        {
          "internalType": "bool",
          "name": "",
          "type": "bool"
        }
      ],
      "stateMutability": "view",
      "type": "function"
    },
    {
      "inputs": [],
      "name": "isNew",
      "outputs": [
        {
          "internalType": "bool",
          "name": "",
          "type": "bool"
        }
      ],
      "stateMutability": "view",
      "type": "function"
    },
    {
      "inputs": [],
      "name": "isOwner",
      "outputs": [
        {
          "internalType": "bool",
          "name": "",
          "type": "bool"
        }
      ],
      "stateMutability": "view",
      "type": "function"
    },
    {
      "inputs": [
        {
          "internalType": "address",
          "name": "collection",
          "type": "address"
        },
        {
          "internalType": "uint256",
          "name": "tokenId",
          "type": "uint256"
        }
      ],
      "name": "isTokenCertified",
      "outputs": [
        {
          "internalType": "bool",
          "name": "",
          "type": "bool"
        }
      ],
      "stateMutability": "view",
      "type": "function"
    },
    {
      "inputs": [
        {
          "internalType": "address",
          "name": "collection",
          "type": "address"
        },
        {
          "internalType": "uint256",
          "name": "tokenId",
          "type": "uint256"
        }
      ],
      "name": "isTokenRegistered",
      "outputs": [
        {
          "internalType": "bool",
          "name": "",
          "type": "bool"
        }
      ],
      "stateMutability": "view",
      "type": "function"
    },
    {
      "inputs": [
        {
          "internalType": "address",
          "name": "wallet",
          "type": "address"
        }
      ],
      "name": "isWalletRegistered",
      "outputs": [
        {
          "internalType": "bool",
          "name": "",
          "type": "bool"
        }
      ],
      "stateMutability": "view",
      "type": "function"
    },
    {
      "inputs": [
        {
          "internalType": "uint256",
          "name": "offset",
          "type": "uint256"
        },
        {
          "internalType": "uint256",
          "name": "length",
          "type": "uint256"
        }
      ],
      "name": "listCollections",
      "outputs": [
        {
          "internalType": "address[]",
          "name": "",
          "type": "address[]"
        }
      ],
      "stateMutability": "view",
      "type": "function"
    },
    {
      "inputs": [
        {
          "internalType": "address",
          "name": "wallet",
          "type": "address"
        }
      ],
      "name": "nextNonce",
      "outputs": [
        {
          "internalType": "uint256",
          "name": "",
          "type": "uint256"
        }
      ],
      "stateMutability": "view",
      "type": "function"
    },
    {
      "inputs": [],
      "name": "totalCollections",
      "outputs": [
        {
          "internalType": "uint256",
          "name": "",
          "type": "uint256"
        }
      ],
      "stateMutability": "view",
      "type": "function"
    },
    {
      "stateMutability": "payable",
      "type": "receive"
    }
  ],
  "transactionHash": "0xf46d22ebc02f6609de3aa874ceabf20f505e676a5b52282a371451873ab8dd0b",
  "args": [],
  "numDeployments": 3,
  "solcInputHash": "0d18f41678e5bb00326a68765bdce346",
  "bytecode": "0x608060405234801561001057600080fd5b506001600755612003806100256000396000f3fe6080604052600436106101395760003560e01c806388e7e766116100ab578063dbdd85a31161006f578063dbdd85a31461038e578063e547cb85146103ae578063eb6538e91461038e578063efeb5f1f146103ce578063f09a4016146103ee578063fe75154b1461040e57610148565b806388e7e766146101bd5780638f32d59b146102f1578063c3386c8114610306578063c4c36e651461034c578063db7a46051461037957610148565b8063379d4f26116100fd578063379d4f26146102235780633d0cd74d146102435780634da465ff1461026357806361d9db2d14610283578063757df8fd146102985780637f247e49146102d157610148565b80630cd55abf1461015d57806327c0056a1461019057806327f63b05146101bd5780632b09f456146101ed5780632d66f0631461020e57610148565b3661014857610146610426565b005b34801561015457600080fd5b50610146610426565b34801561016957600080fd5b5061017d61017836600461178f565b6104c4565b6040519081526020015b60405180910390f35b34801561019c57600080fd5b506101b06101ab3660046117ec565b6104ef565b60405161018791906118e8565b3480156101c957600080fd5b506101dd6101d836600461178f565b6107d7565b6040519015158152602001610187565b3480156101f957600080fd5b506101dd61020836600461178f565b50600090565b34801561021a57600080fd5b506101466107e8565b34801561022f57600080fd5b5061014661023e366004611912565b610ae4565b34801561024f57600080fd5b5061017d61025e366004611956565b610e17565b34801561026f57600080fd5b506101b061027e3660046119a2565b610f94565b34801561028f57600080fd5b5060025461017d565b3480156102a457600080fd5b506101b06102b336600461178f565b6001600160a01b039081166000908152600360205260409020541690565b3480156102dd57600080fd5b506101dd6102ec36600461178f565b611101565b3480156102fd57600080fd5b506101dd61110c565b34801561031257600080fd5b5061033f61032136600461178f565b6001600160a01b031660009081526006602052604090205460ff1690565b6040516101879190611a0a565b34801561035857600080fd5b5061036c610367366004611a32565b61111c565b6040516101879190611a54565b34801561038557600080fd5b5061036c61121e565b34801561039a57600080fd5b506101dd6103a9366004611aa1565b611280565b3480156103ba57600080fd5b506101b06103c9366004611acd565b61128c565b3480156103da57600080fd5b506101466103e936600461178f565b6112bc565b3480156103fa57600080fd5b50610146610409366004611ae6565b6112cc565b34801561041a57600080fd5b5060005460ff166101dd565b600073415225c0d082cb195aee69f490c218def30966da6001600160a01b03166381d1779c6040518163ffffffff1660e01b8152600401602060405180830381865afa15801561047a573d6000803e3d6000fd5b505050506040513d601f19601f8201168201806040525081019061049e9190611b1f565b90503660008037600080366000845af43d6000803e8080156104bf573d6000f35b3d6000fd5b6001600160a01b0381166000908152600460205260408120546104e8816001611b52565b9392505050565b60006007546002141561051d5760405162461bcd60e51b815260040161051490611b6a565b60405180910390fd5b60026007556001600160a01b0386163314610612576105f6868635602088013561054d60608a0160408b01611ba1565b308b8a600001358b602001358c604001358d6060016020810190610571919061178f565b8e60800160208101906105849190611bd3565b604051606097881b6001600160601b0319908116602083015296881b8716603482015260488101959095526068850193909352608884019190915290931b90911660a882015260a09190911b6001600160a01b03191660bc82015260c80160405160208183030381529060405261136a565b6106125760405162461bcd60e51b815260040161051490611bee565b61061b866115ab565b6106375760405162461bcd60e51b815260040161051490611c1f565b6000878351602085016000f560405163b305cff960e01b81526004810186905290915073415225c0d082cb195aee69f490c218def30966da9063b305cff990602401602060405180830381865afa158015610696573d6000803e3d6000fd5b505050506040513d601f19601f820116820180604052508101906106ba9190611b1f565b6001600160a01b0316803b806020016040519081016040528181526000908060200190933c80519060200120816001600160a01b0316803b806020016040519081016040528181526000908060200190933c805190602001201461075c5760405162461bcd60e51b8152602060048201526019602482015278086b092a07440c4f2e8ca40c6dec8ca40dad2e6e6dac2e8c6d603b1b6044820152606401610514565b60405163128bfa2560e01b81526001600160a01b0382169063128bfa259061078a908a908990600401611c50565b600060405180830381600087803b1580156107a457600080fd5b505af11580156107b8573d6000803e3d6000fd5b505050506107c78160026115f8565b6001600755979650505050505050565b60006107e282611676565b92915050565b6007546002141561080b5760405162461bcd60e51b815260040161051490611b6a565b6002600755336000818152600360205260409020546001600160a01b0316806108765760405162461bcd60e51b815260206004820152601d60248201527f435849503a206e6f7420617574686f72697a6564206279206f776e65720000006044820152606401610514565b61087f816115ab565b6108cb5760405162461bcd60e51b815260206004820181905260248201527f435849503a20617574686f72697a6572206e6f206c6f6e676572206f776e65726044820152606401610514565b6109bd73415225c0d082cb195aee69f490c218def30966da6001600160a01b031663b9da967d6040518163ffffffff1660e01b8152600401602060405180830381865afa158015610920573d6000803e3d6000fd5b505050506040513d601f19601f820116820180604052508101906109449190611b1f565b6001600160a01b0316634b19fac8846040518263ffffffff1660e01b815260040161096f91906118e8565b602060405180830381865afa15801561098c573d6000803e3d6000fd5b505050506040513d601f19601f820116820180604052508101906109b09190611b1f565b6001600160a01b03161590565b6109d95760405162461bcd60e51b815260040161051490611cb8565b6109e2826116ae565b73415225c0d082cb195aee69f490c218def30966da6001600160a01b031663b9da967d6040518163ffffffff1660e01b8152600401602060405180830381865afa158015610a34573d6000803e3d6000fd5b505050506040513d601f19601f82011682018060405250810190610a589190611b1f565b6001600160a01b031663e327f60b836040518263ffffffff1660e01b8152600401610a8391906118e8565b600060405180830381600087803b158015610a9d57600080fd5b505af1158015610ab1573d6000803e3d6000fd5b5050506001600160a01b03909216600090815260036020526040902080546001600160a01b031916905550506001600755565b60075460021415610b075760405162461bcd60e51b815260040161051490611b6a565b6002600755610b15336115ab565b610b315760405162461bcd60e51b815260040161051490611cef565b610b3a8461170a565b15610b875760405162461bcd60e51b815260206004820152601a60248201527f435849503a20636f6e7472616374206e6f7420616c6c6f7765640000000000006044820152606401610514565b610c2b73415225c0d082cb195aee69f490c218def30966da6001600160a01b031663b9da967d6040518163ffffffff1660e01b8152600401602060405180830381865afa158015610bdc573d6000803e3d6000fd5b505050506040513d601f19601f82011682018060405250810190610c009190611b1f565b6001600160a01b0316634b19fac8866040518263ffffffff1660e01b815260040161096f91906118e8565b610c475760405162461bcd60e51b815260040161051490611cb8565b8115801590610c5557508015155b8015610c63575060ff831615155b15610de3576000610c73856104c4565b6040516001600160601b031930606090811b8216602084015288901b1660348201526048810182905290915060009060680160405160208183030381529060405290506000610cc5878686898661136a565b905080610ce45760405162461bcd60e51b815260040161051490611bee565b6001600160a01b0387166000908152600460205260409020839055610d08876116ae565b73415225c0d082cb195aee69f490c218def30966da6001600160a01b031663b9da967d6040518163ffffffff1660e01b8152600401602060405180830381865afa158015610d5a573d6000803e3d6000fd5b505050506040513d601f19601f82011682018060405250810190610d7e9190611b1f565b6001600160a01b031663e327f60b886040518263ffffffff1660e01b8152600401610da991906118e8565b600060405180830381600087803b158015610dc357600080fd5b505af1158015610dd7573d6000803e3d6000fd5b50505050505050610e0c565b6001600160a01b038416600090815260036020526040902080546001600160a01b031916331790555b505060016007555050565b600060075460021415610e3c5760405162461bcd60e51b815260040161051490611b6a565b6002600755610e4a336115ab565b610e665760405162461bcd60e51b815260040161051490611cef565b610e7e610e7960a084016080850161178f565b6115ab565b610e9a5760405162461bcd60e51b815260040161051490611c1f565b60026001600160a01b03851660009081526006602052604090205460ff166003811115610ec957610ec96119f4565b14610f165760405162461bcd60e51b815260206004820152601b60248201527f435849503a20636f6c6c656374696f6e206e6f742045524337323100000000006044820152606401610514565b6040516313e2eab360e21b81526001600160a01b03851690634f8baacc90610f449086908690600401611d56565b6020604051808303816000875af1158015610f63573d6000803e3d6000fd5b505050506040513d601f19601f82011682018060405250810190610f879190611e08565b6001600755949350505050565b600060075460021415610fb95760405162461bcd60e51b815260040161051490611b6a565b60026007556001600160a01b0384163314611033576110178484356020860135610fe96060880160408901611ba1565b3089883560208a013560408b013561100760808d0160608e0161178f565b61058460a08e0160808f01611bd3565b6110335760405162461bcd60e51b815260040161051490611bee565b61103c846115ab565b6110585760405162461bcd60e51b815260040161051490611c1f565b60006040518061014001604052806101158152602001611eb9610115913990506000868251602084016000f560405163128bfa2560e01b81529091506001600160a01b0382169063128bfa25906110b59089908890600401611c50565b600060405180830381600087803b1580156110cf57600080fd5b505af11580156110e3573d6000803e3d6000fd5b505050506110f28160026115f8565b60016007559695505050505050565b60006107e2826115ab565b600061111733611101565b905090565b6060600061112a8385611b52565b60025490915081111561113c57506002545b60006111488583611e21565b67ffffffffffffffff811115611160576111606117d6565b604051908082528060200260200182016040528015611189578160200160208202803683370190505b5090506000855b8381101561121357600281815481106111ab576111ab611e38565b9060005260206000200160009054906101000a90046001600160a01b03168383815181106111db576111db611e38565b6001600160a01b0390921660209283029190910190910152816111fd81611e4e565b925050808061120b90611e4e565b915050611190565b509095945050505050565b6060600180548060200260200160405190810160405280929190818152602001828054801561127657602002820191906000526020600020905b81546001600160a01b03168152600190910190602001808311611258575b5050505050905090565b60006104e88383611741565b6000600282815481106112a1576112a1611e38565b6000918252602090912001546001600160a01b031692915050565b6112c98160008080610ae4565b50565b600754600214156112ef5760405162461bcd60e51b815260040161051490611b6a565b6002600755600154156113405760405162461bcd60e51b815260206004820152601960248201527810d612540e88185b1c9958591e481a5b9a5d1a585b1a5e9959603a1b6044820152606401610514565b611349826116ae565b6001600160a01b0381161561136157611361816116ae565b50506001600755565b60008060008351602014156114925760208401519150600182868989604051600081526020016040526040516113a39493929190611e69565b6020604051602081039080840390855afa1580156113c5573d6000803e3d6000fd5b505050602060405103519050806001600160a01b0316886001600160a01b031614156113f6576001925050506115a2565b6001826040516020016114099190611e87565b604051602081830303815290604052805190602001208689896040516000815260200160405260405161143f9493929190611e69565b6020604051602081039080840390855afa158015611461573d6000803e3d6000fd5b505050602060405103519050806001600160a01b0316886001600160a01b03161415611492576001925050506115a2565b600084805190602001209050600181878a8a604051600081526020016040526040516114c19493929190611e69565b6020604051602081039080840390855afa1580156114e3573d6000803e3d6000fd5b505050602060405103519150816001600160a01b0316896001600160a01b0316141561151557600193505050506115a2565b806040516020016115269190611e87565b604051602081830303815290604052805190602001209050600181878a8a604051600081526020016040526040516115619493929190611e69565b6020604051602081039080840390855afa158015611583573d6000803e3d6000fd5b5050604051601f1901516001600160a01b038b81169116149450505050505b95945050505050565b6001600160a01b0381166000818152600560205260408120546001805492939290919081106115dc576115dc611e38565b6000918252602090912001546001600160a01b03161492915050565b6002805460018082019092557f405787fa12a823e0f2b7631cc41b3ba8828b3321ca811111fa75cd3aa3bb5ace0180546001600160a01b0319166001600160a01b03851690811790915560009081526006602052604090208054839260ff199091169083600381111561166d5761166d6119f4565b02179055505050565b6000806001600160a01b03831660009081526006602052604090205460ff1660038111156116a6576116a66119f4565b141592915050565b600180548082019091557fb10e2d527612073b26eecdfd717e6a320cf44b4afac2b0732d9fcbe2b7fa0cf6810180546001600160a01b039093166001600160a01b03199093168317905560009182526005602052604090912055565b6000813f80158015906104e857507fc5d2460186f7233c927e7db2dcc703c0e500b653ca82273b7bfad8045d85a470141592915050565b6000806001600160a01b03841660009081526006602052604090205460ff166003811115611771576117716119f4565b14159392505050565b6001600160a01b03811681146112c957600080fd5b6000602082840312156117a157600080fd5b81356104e88161177a565b6000606082840312156117be57600080fd5b50919050565b600060a082840312156117be57600080fd5b634e487b7160e01b600052604160045260246000fd5b600080600080600080610180878903121561180657600080fd5b8635955060208701356118188161177a565b945061182788604089016117ac565b93506118368860a089016117c4565b9250610140870135915061016087013567ffffffffffffffff8082111561185c57600080fd5b818901915089601f83011261187057600080fd5b813581811115611882576118826117d6565b604051601f8201601f19908116603f011681019083821181831017156118aa576118aa6117d6565b816040528281528c60208487010111156118c357600080fd5b8260208601602083013760006020848301015280955050505050509295509295509295565b6001600160a01b0391909116815260200190565b803560ff8116811461190d57600080fd5b919050565b6000806000806080858703121561192857600080fd5b84356119338161177a565b9350611941602086016118fc565b93969395505050506040820135916060013590565b600080600083850361016081121561196d57600080fd5b84356119788161177a565b935060208501359250610120603f198201121561199457600080fd5b506040840190509250925092565b60008060008061014085870312156119b957600080fd5b8435935060208501356119cb8161177a565b92506119da86604087016117ac565b91506119e98660a087016117c4565b905092959194509250565b634e487b7160e01b600052602160045260246000fd5b6020810160048310611a2c57634e487b7160e01b600052602160045260246000fd5b91905290565b60008060408385031215611a4557600080fd5b50508035926020909101359150565b6020808252825182820181905260009190848201906040850190845b81811015611a955783516001600160a01b031683529284019291840191600101611a70565b50909695505050505050565b60008060408385031215611ab457600080fd5b8235611abf8161177a565b946020939093013593505050565b600060208284031215611adf57600080fd5b5035919050565b60008060408385031215611af957600080fd5b8235611b048161177a565b91506020830135611b148161177a565b809150509250929050565b600060208284031215611b3157600080fd5b81516104e88161177a565b634e487b7160e01b600052601160045260246000fd5b60008219821115611b6557611b65611b3c565b500190565b6020808252601f908201527f5265656e7472616e637947756172643a207265656e7472616e742063616c6c00604082015260600190565b600060208284031215611bb357600080fd5b6104e8826118fc565b80356001600160601b038116811461190d57600080fd5b600060208284031215611be557600080fd5b6104e882611bbc565b602080825260179082015276435849503a20696e76616c6964207369676e617475726560481b604082015260600190565b60208082526017908201527621ac24a81d1031b932b0ba37b9103737ba1037bbb732b960491b604082015260600190565b600060c08201905060018060a01b0380851683528335602084015260208401356040840152604084013560608401526060840135611c8d8161177a565b818116608085015250506001600160601b03611cab60808501611bbc565b1660a08301529392505050565b6020808252601f908201527f435849503a2077616c6c657420616c7265616479207265676973746572656400604082015260600190565b6020808252601e908201527f435849503a20796f7520617265206e6f7420616e20746865206f776e65720000604082015260600190565b80356001600160a81b03198116811461190d57600080fd5b80356001600160901b03198116811461190d57600080fd5b60006101408201905083825282356020830152602083013560408301526040830135606083015260ff611d8b606085016118fc565b1660808301526080830135611d9f8161177a565b6001600160a01b03811660a08401525060a083013560c0830152611dc560c08401611d26565b6001600160a81b0319811660e08401525061010060e084013581840152611ded818501611d3e565b6001600160901b031981166101208501529050509392505050565b600060208284031215611e1a57600080fd5b5051919050565b600082821015611e3357611e33611b3c565b500390565b634e487b7160e01b600052603260045260246000fd5b6000600019821415611e6257611e62611b3c565b5060010190565b93845260ff9290921660208401526040830152606082015260800190565b7f19457468657265756d205369676e6564204d6573736167653a0a3332000000008152601c810191909152603c019056fe608060405234801561001057600080fd5b5060f68061001f6000396000f3fe60806040819052632c5feccb60e11b8152600090735fbdb2315678afecb367f032d93f642f64180aa3906358bfd99690608490602090600481865afa158015604b573d6000803e3d6000fd5b505050506040513d601f19601f82011682018060405250810190606d91906092565b90503660008037600080366000845af43d6000803e808015608d573d6000f35b3d6000fd5b60006020828403121560a357600080fd5b81516001600160a01b038116811460b957600080fd5b939250505056fea26469706673582212204996b86e77580c314351168858984744a572372b6231618c5b166e22158c56ef64736f6c634300080c0033a26469706673582212205029974284d77e113c2a3cdb9742b98df8b6eb456c9013ca6b67e05db73ae2ce64736f6c634300080c0033",
  "devdoc": {
    "author": "CXIP-Labs",
    "details": "The smart contract interacts and relies on CXIP Provenance.",
    "kind": "dev",
    "methods": {
      "addSignedWallet(address,uint8,bytes32,bytes32)": {
        "details": "This function needs to be called by a wallet already associated with the identity.Signature from new wallet can be included or omitted. If not included, new wallet will need to make a connectWallet function call.",
        "params": {
          "newWallet": "Address of new wallet being added to the identity.",
          "r": "The R value of the new wallet signature. Optional.",
          "s": "The S value of the new wallet signature. Optional.",
          "v": "The V value of the new wallet signature (27-28). Optional."
        }
      },
      "addWallet(address)": {
        "details": "Use this function if you are not planning to include wallet signature.",
        "params": {
          "newWallet": "Address of new wallet being added to the identity."
        }
      },
      "connectWallet()": {
        "details": "Make this call with a new wallet after an addWallet function is called by an existing wallet."
      },
      "constructor": {
        "details": "To make exact CREATE2 deployment possible, constructor is left empty. We utilize the \"init\" function instead."
      },
      "createCustomERC721Collection(bytes32,address,(bytes32,bytes32,uint8),(bytes32,bytes32,bytes32,address,uint96),bytes32,bytes)": {
        "details": "Creates and associates the custom ERC721 collection with the identity.",
        "params": {
          "bytecode": "The bytecode used for deployment. Validated against slot code for abuse prevention.",
          "collectionCreator": "Specific wallet, associated with the identity, that will be marked as the creator of this collection.",
          "collectionData": "The collection data struct, with all the default collection info.",
          "saltHash": "A salt used for deploying a collection to a specific address.",
          "slot": "Hash of proxy contract slot where the source is saved in registry.",
          "verification": "Signature created by the collectionCreator wallet to validate the integrity of the collection data."
        },
        "returns": {
          "_0": "address Returns the address of the newly created collection."
        }
      },
      "createERC721Collection(bytes32,address,(bytes32,bytes32,uint8),(bytes32,bytes32,bytes32,address,uint96))": {
        "details": "Creates and associates the ERC721 collection with the identity.",
        "params": {
          "collectionCreator": "Specific wallet, associated with the identity, that will be marked as the creator of this collection.",
          "collectionData": "The collection data struct, with all the default collection info.",
          "saltHash": "A salt used for deploying a collection to a specific address.",
          "verification": "Signature created by the collectionCreator wallet to validate the integrity of the collection data."
        },
        "returns": {
          "_0": "address Returns the address of the newly created collection."
        }
      },
      "createERC721Token(address,uint256,(bytes32,(bytes32,bytes32,uint8),address,bytes32,bytes11,bytes32,bytes14))": {
        "details": "This function is embedded inside of the identity contract to make validation and providence bulletproof.An NFT can be minted directly inside the collection, but the CXIP Asset smart contract will not mark it as a certified NFT.",
        "params": {
          "collection": "Address of the smart contract for the collection. Must have been created by this identity.",
          "id": "Token id for the NFT to mint. Can be left as 0 to allow automatic token id allocation.",
          "tokenData": "A struct containing all of the necessary NFT information."
        },
        "returns": {
          "_0": "uint256 Returns the token id of the newly minted NFT."
        }
      },
      "getAuthorizer(address)": {
        "details": "Should be used for visual validation of wallet that is authorising a new wallet to be added.",
        "params": {
          "wallet": "The address of the new wallet being requested to add."
        },
        "returns": {
          "_0": "address Returns the address of the wallet that is requesting the new wallet."
        }
      },
      "getCollectionById(uint256)": {
        "details": "This retrieves a collection by index. Don't be confused by the ID in the title.",
        "params": {
          "index": "Index of the item to get from the array."
        },
        "returns": {
          "_0": "address Returns the collection contract address at that index of array."
        }
      },
      "getCollectionType(address)": {
        "details": "Collection must be associated with identity.",
        "params": {
          "collection": "Contract address of the collection."
        },
        "returns": {
          "_0": "InterfaceType Returns an enum (uint8) of the collection interface type."
        }
      },
      "getWallets()": {
        "details": "Any wallet returned in this response should be considered as owner.",
        "returns": {
          "_0": "address[] Returns an array of all the wallets that have been associated with the identity contract.."
        }
      },
      "init(address,address)": {
        "details": "It is important to run this inside the same function as the create2 for this contract.",
        "params": {
          "secondaryWallet": "Optional second wallet to add to new identity.",
          "wallet": "The address of the wallet to add to new identity."
        }
      },
      "isCollectionCertified(address)": {
        "details": "Reserved function for later use. Will be used to identify if collection was heavily vetted.",
        "params": {
          "collection": "Contract address of the collection."
        },
        "returns": {
          "_0": "bool Returns true if collection is associated with the identity."
        }
      },
      "isCollectionOpen(address)": {
        "details": "For now this always returns false. Left as a placeholder for future development where shared collections might be used.Since it's not being used, the collection variable is commented out to avoid compiler warnings.",
        "returns": {
          "_0": "bool Returns true of false, to indicate if a specific collection is open/shared."
        }
      },
      "isCollectionRegistered(address)": {
        "details": "For now will only return true for collections created directly from the identity contract.",
        "params": {
          "collection": "Contract address of the collection."
        },
        "returns": {
          "_0": "bool Returns true if collection is associated with the identity."
        }
      },
      "isNew()": {
        "details": "This function is called by provenance as an extra layer of validation.",
        "returns": {
          "_0": "bool Returns the current state of the _newTrigger variable."
        }
      },
      "isOwner()": {
        "details": "This checks if the msg.sender wallet is associated with the identity.",
        "returns": {
          "_0": "bool Returns true is the wallet is authorised by the identity."
        }
      },
      "isTokenCertified(address,uint256)": {
        "details": "Reserved function for later use. Will be used to identify if token was heavily vetted.",
        "params": {
          "collection": "Contract address of the collection.",
          "tokenId": "Id of the token."
        },
        "returns": {
          "_0": "bool Returns true if token is associated with the identity."
        }
      },
      "isTokenRegistered(address,uint256)": {
        "details": "For now will only return true for tokens created directly from the identity contract.",
        "params": {
          "collection": "Contract address of the collection.",
          "tokenId": "Id of the token."
        },
        "returns": {
          "_0": "bool Returns true if token is associated with the identity."
        }
      },
      "isWalletRegistered(address)": {
        "details": "Used for external validation. Wallets can only be associated to one identity, ever.",
        "params": {
          "wallet": "Address of wallet to check against the identity."
        },
        "returns": {
          "_0": "bool Returns true if wallet is registered to this identity."
        }
      },
      "listCollections(uint256,uint256)": {
        "details": "Use in conjunction with the totalCollections function, for pagination.",
        "params": {
          "length": "Length of slice to return, starting from offset index.",
          "offset": "Index from where to start pagination. Start at 0."
        },
        "returns": {
          "_0": "address[] Returns a fixed length array starting from offset."
        }
      },
      "nextNonce(address)": {
        "details": "This is not wallet transaction nonce. This is an internal nonce handled by the smart contract. Should be used for special instances where nonced signatures are required.",
        "params": {
          "wallet": "Address of wallet."
        },
        "returns": {
          "_0": "uint256 Returns the next nonce to use."
        }
      },
      "totalCollections()": {
        "details": "Use in conjunction with the listCollections, for pagination.",
        "returns": {
          "_0": "uint256 Returns the total length of collections."
        }
      }
    },
    "stateVariables": {
      "_additionalInfo": {
        "details": "Map with interface type definitions for identity created collections."
      },
      "_collectionArray": {
        "details": "Array of addresses for all collection that were created by the identity."
      },
      "_lastNonce": {
        "details": "A map of nonces already used by a wallet, to prevent signature hijacking."
      },
      "_newTrigger": {
        "details": "A variable that is used as an external indicator."
      },
      "_preAuthWallets": {
        "details": "Temporary map for storing wallets that need to be added, but have not been authorised yet."
      },
      "_reentrancyState": {
        "details": "Reentrancy implementation from OpenZepellin. State 1 == NOT_ENDERED, State 2 == ENTERED"
      },
      "_walletArray": {
        "details": "Array of all wallets associated with the identity."
      },
      "_walletIndexMap": {
        "details": "A map to make it possible for retrieving wallets by address rather than array index."
      }
    },
    "title": "CXIP Identity",
    "version": 1
  },
  "userdoc": {
    "kind": "user",
    "methods": {
      "addSignedWallet(address,uint8,bytes32,bytes32)": {
        "notice": "Add a new wallet to the identity."
      },
      "addWallet(address)": {
        "notice": "Short-hand for addSignedWallet, but without the signature."
      },
      "connectWallet()": {
        "notice": "Connects a pre-authorised wallet."
      },
      "constructor": {
        "notice": "Constructor is empty and only reentrancy guard is implemented."
      },
      "createCustomERC721Collection(bytes32,address,(bytes32,bytes32,uint8),(bytes32,bytes32,bytes32,address,uint96),bytes32,bytes)": {
        "notice": "Create a custom ERC721 collection."
      },
      "createERC721Collection(bytes32,address,(bytes32,bytes32,uint8),(bytes32,bytes32,bytes32,address,uint96))": {
        "notice": "Create an ERC721 collection."
      },
      "createERC721Token(address,uint256,(bytes32,(bytes32,bytes32,uint8),address,bytes32,bytes11,bytes32,bytes14))": {
        "notice": "Create an ERC721 NFT for a collection created by this identity."
      },
      "getAuthorizer(address)": {
        "notice": "Returns the wallet that is authorising the new wallet to be added."
      },
      "getCollectionType(address)": {
        "notice": "Get the collection's Interface Type: ERC20, ERC721, ERC1155."
      },
      "getWallets()": {
        "notice": "Get wallets associated with identity."
      },
      "init(address,address)": {
        "notice": "Initialise the identity. This function works only once."
      },
      "isCollectionOpen(address)": {
        "notice": "Check if an identity collection is open to external minting."
      },
      "isCollectionRegistered(address)": {
        "notice": "Check if a collection is registered with identity."
      },
      "isNew()": {
        "notice": "Used for cross-contract confirmation/validation. You should not use this."
      },
      "isOwner()": {
        "notice": "Check if current caller is owner of the smart contract."
      },
      "isTokenRegistered(address,uint256)": {
        "notice": "Check if a token is registered with identity."
      },
      "isWalletRegistered(address)": {
        "notice": "Check if wallet is associated with the identity."
      },
      "listCollections(uint256,uint256)": {
        "notice": "List all collections associated with this identity."
      },
      "nextNonce(address)": {
        "notice": "Get next nonce to be used for a particular wallet."
      },
      "totalCollections()": {
        "notice": "Get total number of collections associated with this identity."
      }
    },
    "notice": "A smart contract for managing an on-chain identity.",
    "version": 1
  },
  "storageLayout": {
    "storage": [
      {
        "astId": 1938,
        "contract": "contracts/CxipIdentity.sol:CxipIdentity",
        "label": "_newTrigger",
        "offset": 0,
        "slot": "0",
        "type": "t_bool"
      },
      {
        "astId": 1942,
        "contract": "contracts/CxipIdentity.sol:CxipIdentity",
        "label": "_walletArray",
        "offset": 0,
        "slot": "1",
        "type": "t_array(t_address)dyn_storage"
      },
      {
        "astId": 1946,
        "contract": "contracts/CxipIdentity.sol:CxipIdentity",
        "label": "_collectionArray",
        "offset": 0,
        "slot": "2",
        "type": "t_array(t_address)dyn_storage"
      },
      {
        "astId": 1951,
        "contract": "contracts/CxipIdentity.sol:CxipIdentity",
        "label": "_preAuthWallets",
        "offset": 0,
        "slot": "3",
        "type": "t_mapping(t_address,t_address)"
      },
      {
        "astId": 1956,
        "contract": "contracts/CxipIdentity.sol:CxipIdentity",
        "label": "_lastNonce",
        "offset": 0,
        "slot": "4",
        "type": "t_mapping(t_address,t_uint256)"
      },
      {
        "astId": 1961,
        "contract": "contracts/CxipIdentity.sol:CxipIdentity",
        "label": "_walletIndexMap",
        "offset": 0,
        "slot": "5",
        "type": "t_mapping(t_address,t_uint256)"
      },
      {
        "astId": 1967,
        "contract": "contracts/CxipIdentity.sol:CxipIdentity",
        "label": "_additionalInfo",
        "offset": 0,
        "slot": "6",
        "type": "t_mapping(t_address,t_enum(InterfaceType)8994)"
      },
      {
        "astId": 1970,
        "contract": "contracts/CxipIdentity.sol:CxipIdentity",
        "label": "_reentrancyState",
        "offset": 0,
        "slot": "7",
        "type": "t_uint256"
      }
    ],
    "types": {
      "t_address": {
        "encoding": "inplace",
        "label": "address",
        "numberOfBytes": "20"
      },
      "t_array(t_address)dyn_storage": {
        "base": "t_address",
        "encoding": "dynamic_array",
        "label": "address[]",
        "numberOfBytes": "32"
      },
      "t_bool": {
        "encoding": "inplace",
        "label": "bool",
        "numberOfBytes": "1"
      },
      "t_enum(InterfaceType)8994": {
        "encoding": "inplace",
        "label": "enum InterfaceType",
        "numberOfBytes": "1"
      },
      "t_mapping(t_address,t_address)": {
        "encoding": "mapping",
        "key": "t_address",
        "label": "mapping(address => address)",
        "numberOfBytes": "32",
        "value": "t_address"
      },
      "t_mapping(t_address,t_enum(InterfaceType)8994)": {
        "encoding": "mapping",
        "key": "t_address",
        "label": "mapping(address => enum InterfaceType)",
        "numberOfBytes": "32",
        "value": "t_enum(InterfaceType)8994"
      },
      "t_mapping(t_address,t_uint256)": {
        "encoding": "mapping",
        "key": "t_address",
        "label": "mapping(address => uint256)",
        "numberOfBytes": "32",
        "value": "t_uint256"
      },
      "t_uint256": {
        "encoding": "inplace",
        "label": "uint256",
        "numberOfBytes": "32"
      }
    }
  }
}