{
  "address": "0xbc665b5e35b0b30fafd4900676da52e217b29090",
  "abi": [
    {
      "inputs": [],
      "stateMutability": "nonpayable",
      "type": "constructor"
    },
    {
      "anonymous": false,
      "inputs": [
        {
          "indexed": false,
          "internalType": "uint256",
          "name": "tokenId",
          "type": "uint256"
        },
        {
          "indexed": false,
          "internalType": "address[]",
          "name": "recipients",
          "type": "address[]"
        },
        {
          "indexed": false,
          "internalType": "uint256[]",
          "name": "bps",
          "type": "uint256[]"
        }
      ],
      "name": "SecondarySaleFees",
      "type": "event"
    },
    {
      "stateMutability": "nonpayable",
      "type": "fallback"
    },
    {
      "inputs": [
        {
          "internalType": "uint256",
          "name": "tokenId",
          "type": "uint256"
        }
      ],
      "name": "bidSharesForToken",
      "outputs": [
        {
          "components": [
            {
              "components": [
                {
                  "internalType": "uint256",
                  "name": "value",
                  "type": "uint256"
                }
              ],
              "internalType": "struct Zora.Decimal",
              "name": "prevOwner",
              "type": "tuple"
            },
            {
              "components": [
                {
                  "internalType": "uint256",
                  "name": "value",
                  "type": "uint256"
                }
              ],
              "internalType": "struct Zora.Decimal",
              "name": "creator",
              "type": "tuple"
            },
            {
              "components": [
                {
                  "internalType": "uint256",
                  "name": "value",
                  "type": "uint256"
                }
              ],
              "internalType": "struct Zora.Decimal",
              "name": "owner",
              "type": "tuple"
            }
          ],
          "internalType": "struct Zora.BidShares",
          "name": "bidShares",
          "type": "tuple"
        }
      ],
      "stateMutability": "view",
      "type": "function"
    },
    {
      "inputs": [
        {
          "internalType": "address",
          "name": "",
          "type": "address"
        },
        {
          "internalType": "uint256",
          "name": "tokenId",
          "type": "uint256"
        },
        {
          "internalType": "uint256",
          "name": "amount",
          "type": "uint256"
        }
      ],
      "name": "calculateRoyaltyFee",
      "outputs": [
        {
          "internalType": "uint256",
          "name": "",
          "type": "uint256"
        }
      ],
      "stateMutability": "view",
      "type": "function"
    },
    {
      "inputs": [
        {
          "internalType": "address payable[]",
          "name": "addresses",
          "type": "address[]"
        },
        {
          "internalType": "uint256[]",
          "name": "bps",
          "type": "uint256[]"
        }
      ],
      "name": "configurePayouts",
      "outputs": [],
      "stateMutability": "nonpayable",
      "type": "function"
    },
    {
      "inputs": [],
      "name": "getEthPayout",
      "outputs": [],
      "stateMutability": "nonpayable",
      "type": "function"
    },
    {
      "inputs": [
        {
          "internalType": "uint256",
          "name": "tokenId",
          "type": "uint256"
        }
      ],
      "name": "getFeeBps",
      "outputs": [
        {
          "internalType": "uint256[]",
          "name": "",
          "type": "uint256[]"
        }
      ],
      "stateMutability": "view",
      "type": "function"
    },
    {
      "inputs": [
        {
          "internalType": "uint256",
          "name": "tokenId",
          "type": "uint256"
        }
      ],
      "name": "getFeeRecipients",
      "outputs": [
        {
          "internalType": "address payable[]",
          "name": "",
          "type": "address[]"
        }
      ],
      "stateMutability": "view",
      "type": "function"
    },
    {
      "inputs": [
        {
          "internalType": "uint256",
          "name": "tokenId",
          "type": "uint256"
        }
      ],
      "name": "getFees",
      "outputs": [
        {
          "internalType": "address payable[]",
          "name": "",
          "type": "address[]"
        },
        {
          "internalType": "uint256[]",
          "name": "",
          "type": "uint256[]"
        }
      ],
      "stateMutability": "view",
      "type": "function"
    },
    {
      "inputs": [],
      "name": "getPayoutInfo",
      "outputs": [
        {
          "internalType": "address payable[]",
          "name": "addresses",
          "type": "address[]"
        },
        {
          "internalType": "uint256[]",
          "name": "bps",
          "type": "uint256[]"
        }
      ],
      "stateMutability": "view",
      "type": "function"
    },
    {
      "inputs": [
        {
          "internalType": "uint256",
          "name": "tokenId",
          "type": "uint256"
        }
      ],
      "name": "getRoyalties",
      "outputs": [
        {
          "internalType": "address payable[]",
          "name": "",
          "type": "address[]"
        },
        {
          "internalType": "uint256[]",
          "name": "",
          "type": "uint256[]"
        }
      ],
      "stateMutability": "view",
      "type": "function"
    },
    {
      "inputs": [
        {
          "internalType": "string",
          "name": "slot",
          "type": "string"
        }
      ],
      "name": "getStorageSlot",
      "outputs": [
        {
          "internalType": "bytes32",
          "name": "",
          "type": "bytes32"
        }
      ],
      "stateMutability": "pure",
      "type": "function"
    },
    {
      "inputs": [
        {
          "internalType": "string",
          "name": "tokenName",
          "type": "string"
        }
      ],
      "name": "getTokenAddress",
      "outputs": [
        {
          "internalType": "address",
          "name": "",
          "type": "address"
        }
      ],
      "stateMutability": "view",
      "type": "function"
    },
    {
      "inputs": [
        {
          "internalType": "address",
          "name": "tokenAddress",
          "type": "address"
        }
      ],
      "name": "getTokenPayout",
      "outputs": [],
      "stateMutability": "nonpayable",
      "type": "function"
    },
    {
      "inputs": [
        {
          "internalType": "string",
          "name": "tokenName",
          "type": "string"
        }
      ],
      "name": "getTokenPayoutByName",
      "outputs": [],
      "stateMutability": "nonpayable",
      "type": "function"
    },
    {
      "inputs": [
        {
          "internalType": "address[]",
          "name": "tokenAddresses",
          "type": "address[]"
        }
      ],
      "name": "getTokensPayout",
      "outputs": [],
      "stateMutability": "nonpayable",
      "type": "function"
    },
    {
      "inputs": [
        {
          "internalType": "string[]",
          "name": "tokenNames",
          "type": "string[]"
        }
      ],
      "name": "getTokensPayoutByName",
      "outputs": [],
      "stateMutability": "nonpayable",
      "type": "function"
    },
    {
      "inputs": [
        {
          "internalType": "uint256",
          "name": "tokenId",
          "type": "uint256"
        },
        {
          "internalType": "address payable",
          "name": "receiver",
          "type": "address"
        },
        {
          "internalType": "uint256",
          "name": "bp",
          "type": "uint256"
        }
      ],
      "name": "init",
      "outputs": [],
      "stateMutability": "nonpayable",
      "type": "function"
    },
    {
      "inputs": [],
      "name": "marketContract",
      "outputs": [
        {
          "internalType": "address",
          "name": "",
          "type": "address"
        }
      ],
      "stateMutability": "view",
      "type": "function"
    },
    {
      "inputs": [
        {
          "internalType": "uint256",
          "name": "tokenId",
          "type": "uint256"
        },
        {
          "internalType": "uint256",
          "name": "value",
          "type": "uint256"
        }
      ],
      "name": "royaltyInfo",
      "outputs": [
        {
          "internalType": "address",
          "name": "",
          "type": "address"
        },
        {
          "internalType": "uint256",
          "name": "",
          "type": "uint256"
        }
      ],
      "stateMutability": "view",
      "type": "function"
    },
    {
      "inputs": [
        {
          "internalType": "uint256",
          "name": "tokenId",
          "type": "uint256"
        },
        {
          "internalType": "address payable",
          "name": "receiver",
          "type": "address"
        },
        {
          "internalType": "uint256",
          "name": "bp",
          "type": "uint256"
        }
      ],
      "name": "setRoyalties",
      "outputs": [],
      "stateMutability": "nonpayable",
      "type": "function"
    },
    {
      "inputs": [
        {
          "internalType": "bytes4",
          "name": "interfaceId",
          "type": "bytes4"
        }
      ],
      "name": "supportsInterface",
      "outputs": [
        {
          "internalType": "bool",
          "name": "",
          "type": "bool"
        }
      ],
      "stateMutability": "pure",
      "type": "function"
    },
    {
      "inputs": [
        {
          "internalType": "address",
          "name": "",
          "type": "address"
        },
        {
          "internalType": "uint256",
          "name": "tokenId",
          "type": "uint256"
        }
      ],
      "name": "tokenCreator",
      "outputs": [
        {
          "internalType": "address",
          "name": "",
          "type": "address"
        }
      ],
      "stateMutability": "view",
      "type": "function"
    },
    {
      "inputs": [
        {
          "internalType": "uint256",
          "name": "tokenId",
          "type": "uint256"
        }
      ],
      "name": "tokenCreators",
      "outputs": [
        {
          "internalType": "address",
          "name": "",
          "type": "address"
        }
      ],
      "stateMutability": "view",
      "type": "function"
    },
    {
      "stateMutability": "payable",
      "type": "receive"
    }
  ],
  "transactionHash": "0x9111d0049e07c633a301b04494d8b976406262480af16ba70be8c5be58d01839",
  "args": [],
  "numDeployments": 3,
  "solcInputHash": "0d18f41678e5bb00326a68765bdce346",
  "bytecode": "0x608060405234801561001057600080fd5b5061267b806100206000396000f3fe6080604052600436106101395760003560e01c80639df0d22f116100ab578063c40912361161006f578063c409123614610396578063d5a06d4c14610376578063e0fd045f146103b6578063e2c7f338146103d6578063ea2299f8146103f6578063f9ce05821461041657610140565b80639df0d22f146102ed578063a1794bcd1461030d578063b85ed7e414610329578063b9c4d9fb14610349578063bb3bafd61461037657610140565b806320c60d2a116100fd57806320c60d2a1461020e5780632a55205a1461022e5780633328d2191461025c5780635b10d5361461027c578063860110f51461029c578063990803c3146102ca57610140565b806301ffc9a7146101575780630ebd4c7f1461018c57806312cb4738146101b95780631949ddf3146101ce5780631d03532e146101ee57610140565b3661014057005b34801561014c57600080fd5b5061015561045b565b005b34801561016357600080fd5b50610177610172366004611c94565b610591565b60405190151581526020015b60405180910390f35b34801561019857600080fd5b506101ac6101a7366004611cbe565b6106af565b6040516101839190611d12565b3480156101c557600080fd5b5061015561074a565b3480156101da57600080fd5b506101556101e9366004611d3a565b61075c565b3480156101fa57600080fd5b50610155610209366004611e0c565b610770565b34801561021a57600080fd5b50610155610229366004611e6b565b61089a565b34801561023a57600080fd5b5061024e610249366004611f09565b6108ab565b604051610183929190611f2b565b34801561026857600080fd5b50610155610277366004611faa565b610915565b34801561028857600080fd5b5061015561029736600461206b565b610a34565b3480156102a857600080fd5b506102bc6102b736600461211b565b610bfc565b604051908152602001610183565b3480156102d657600080fd5b506102df610c52565b604051610183929190612189565b3480156102f957600080fd5b506102bc6103083660046121b7565b610c6d565b34801561031957600080fd5b50305b6040516101839190612228565b34801561033557600080fd5b5061031c61034436600461223c565b610ca7565b34801561035557600080fd5b50610369610364366004611cbe565b610cd3565b6040516101839190612268565b34801561038257600080fd5b506102df610391366004611cbe565b610d95565b3480156103a257600080fd5b5061031c6103b1366004611e0c565b610ecf565b3480156103c257600080fd5b5061031c6103d1366004611cbe565b610eda565b3480156103e257600080fd5b506101556103f136600461227b565b610efe565b34801561040257600080fd5b5061015561041136600461227b565b611065565b34801561042257600080fd5b50610436610431366004611cbe565b611089565b6040805182515181526020808401515190820152918101515190820152606001610183565b600073415225c0d082cb195aee69f490c218def30966da6001600160a01b031663b305cff960026040516020016104ad9074656970313936372e435849502e686f74666978657360581b815260150190565b60408051601f19818403018152908290526104c7916122e3565b602060405180830381855afa1580156104e4573d6000803e3d6000fd5b5050506040513d601f19601f8201168201806040525081019061050791906122ff565b6040518263ffffffff1660e01b815260040161052591815260200190565b602060405180830381865afa158015610542573d6000803e3d6000fd5b505050506040513d601f19601f820116820180604052508101906105669190612318565b90503660008037600080366000845af43d6000803e808015610587573d6000f35b3d6000fd5b505050565b600063152a902d60e11b6001600160e01b0319831614806105c25750632dde656160e21b6001600160e01b03198316145b806105dd575063b9c4d9fb60e01b6001600160e01b03198316145b806105f85750635d9dd7eb60e11b6001600160e01b03198316145b8061061357506335681b5360e21b6001600160e01b03198316145b8061062e5750632e17b5f960e21b6001600160e01b03198316145b80610649575063860110f560e01b6001600160e01b03198316145b80610664575063a1794bcd60e01b6001600160e01b03198316145b8061067f575063e0fd045f60e01b6001600160e01b03198316145b8061069a5750637ce702c160e11b6001600160e01b03198316145b156106a757506001919050565b506000919050565b604080516001808252818301909252606091600091906020808301908036833701905050905060006106e08461110a565b6001600160a01b0316141561071b576106f761114b565b8160008151811061070a5761070a612335565b602002602001018181525050610744565b61072483611170565b8160008151811061073757610737612335565b6020026020010181815250505b92915050565b610752611186565b61075a611248565b565b610764611186565b61076d81611393565b50565b610778611186565b600073415225c0d082cb195aee69f490c218def30966da6001600160a01b03166381d1779c6040518163ffffffff1660e01b8152600401602060405180830381865afa1580156107cc573d6000803e3d6000fd5b505050506040513d601f19601f820116820180604052508101906107f09190612318565b6001600160a01b031663c4091236836040518263ffffffff1660e01b815260040161081b919061234b565b602060405180830381865afa158015610838573d6000803e3d6000fd5b505050506040513d601f19601f8201168201806040525081019061085c9190612318565b90506001600160a01b03811661088d5760405162461bcd60e51b81526004016108849061237e565b60405180910390fd5b61089681611393565b5050565b6108a2611186565b61076d81611546565b600080806108b88561110a565b6001600160a01b031614156108f8576108cf611724565b612710846108db61114b565b6108e591906123cb565b6108ef91906123ea565b9150915061090e565b6109018461110a565b612710846108db87611170565b9250929050565b61091d611749565b6109395760405162461bcd60e51b81526004016108849061240c565b805182511461098a5760405162461bcd60e51b815260206004820152601f60248201527f504131443a206d6973736d617463686564206172726179206c656e67687473006044820152606401610884565b6000805b83518110156109d0578281815181106109a9576109a9612335565b6020026020010151826109bc919061243f565b9150806109c881612457565b91505061098e565b508061271014610a225760405162461bcd60e51b815260206004820152601c60248201527f504131443a2062707320646f776e277420657175616c203130303030000000006044820152606401610884565b610a2b836118b9565b61058c82611951565b610a3c611186565b80516000816001600160401b03811115610a5857610a58611d57565b604051908082528060200260200182016040528015610a81578160200160208202803683370190505b50905060005b82811015610bf257600073415225c0d082cb195aee69f490c218def30966da6001600160a01b03166381d1779c6040518163ffffffff1660e01b8152600401602060405180830381865afa158015610ae3573d6000803e3d6000fd5b505050506040513d601f19601f82011682018060405250810190610b079190612318565b6001600160a01b031663c4091236868481518110610b2757610b27612335565b60200260200101516040518263ffffffff1660e01b8152600401610b4b919061234b565b602060405180830381865afa158015610b68573d6000803e3d6000fd5b505050506040513d601f19601f82011682018060405250810190610b8c9190612318565b90506001600160a01b038116610bb45760405162461bcd60e51b81526004016108849061237e565b80838381518110610bc757610bc7612335565b6001600160a01b03909216602092830291909101909101525080610bea81612457565b915050610a87565b5061058c81611546565b600080610c088461110a565b6001600160a01b03161415610c3e5761271082610c2361114b565b610c2d91906123cb565b610c3791906123ea565b9050610c4b565b61271082610c2385611170565b9392505050565b606080610c5d6119e2565b9150610c67611acd565b90509091565b600060018383604051602001610c84929190612472565b6040516020818303038152906040528051906020012060001c610c4b919061249b565b600080610cb38361110a565b90506001600160a01b038116610c4b57610ccb611724565b915050610744565b60408051600180825281830190925260609160009190602080830190803683370190505090506000610d048461110a565b6001600160a01b03161415610d5357610d1b611724565b81600081518110610d2e57610d2e612335565b60200260200101906001600160a01b031690816001600160a01b031681525050610744565b610d5c8361110a565b81600081518110610d6f57610d6f612335565b60200260200101906001600160a01b031690816001600160a01b03168152505092915050565b60408051600180825281830190925260609182916000916020808301908036833750506040805160018082528183019092529293506000929150602080830190803683370190505090506000610dea8661110a565b6001600160a01b03161415610e6057610e01611724565b82600081518110610e1457610e14612335565b60200260200101906001600160a01b031690816001600160a01b031681525050610e3c61114b565b81600081518110610e4f57610e4f612335565b602002602001018181525050610ec5565b610e698561110a565b82600081518110610e7c57610e7c612335565b60200260200101906001600160a01b031690816001600160a01b031681525050610ea585611170565b81600081518110610eb857610eb8612335565b6020026020010181815250505b9094909350915050565b600061074482611ba4565b600080610ee68361110a565b90506001600160a01b03811661074457610c4b611724565b610f06611749565b610f225760405162461bcd60e51b81526004016108849061240c565b82610f7c57610f4f827faee4e97c19ce50ea5345ba9751676d533a3a7b99c3568901208f92f9eea6a7f255565b610f77817ffd198c3b406b2320ea9f4a413c7a69a7592dbfc4175b8c252fec24223e68b72055565b610f90565b610f868383611bba565b610f908382611bfa565b604080516001808252818301909252600091602080830190803683370190505090508281600081518110610fc657610fc6612335565b6001600160a01b039290921660209283029190910190910152604080516001808252818301909252600091816020016020820280368337019050509050828160008151811061101757611017612335565b6020026020010181815250507f99aba1d63749cfd5ad1afda7c4663840924d54eb5f005bbbeadedc6ec13674b2858383604051611056939291906124b2565b60405180910390a15050505050565b61106d611749565b61058c5760405162461bcd60e51b81526004016108849061240c565b6110c66040805160808101825260006060820181815282528251602080820185528282528084019190915283519081018452908152909182015290565b805160009081905260408201518190526110df8361110a565b6001600160a01b03161415611101576110f661114b565b602082015152919050565b6110f682611170565b600080600183604051602001611120919061251c565b6040516020818303038152906040528051906020012060001c611143919061249b565b549392505050565b7ffd198c3b406b2320ea9f4a413c7a69a7592dbfc4175b8c252fec24223e68b7205490565b6000806001836040516020016111209190612545565b61118e611749565b61075a5760008061119d6119e2565b90503360005b82518110156111fa57816001600160a01b03168382815181106111c8576111c8612335565b60200260200101516001600160a01b031614156111e857600193506111fa565b806111f281612457565b9150506111a3565b508261058c5760405162461bcd60e51b815260206004820152601b60248201527f504131443a2073656e646572206e6f7420617574686f72697a656400000000006044820152606401610884565b60006112526119e2565b9050600061125e611acd565b825190915060008161127281615b046123cb565b61127c919061243f565b90504761271061128c838361249b565b116112d95760405162461bcd60e51b815260206004820181905260248201527f504131443a204e6f7420656e6f7567682045544820746f207472616e736665726044820152606401610884565b6112e3828261249b565b90506000805b8481101561138a576127108387838151811061130757611307612335565b602002602001015161131991906123cb565b61132391906123ea565b915086818151811061133757611337612335565b60200260200101516001600160a01b03166108fc839081150290604051600060405180830381858888f19350505050158015611377573d6000803e3d6000fd5b508061138281612457565b9150506112e9565b50505050505050565b600061139d6119e2565b905060006113a9611acd565b82516040516370a0823160e01b81529192509084906000906001600160a01b038316906370a08231906113e0903090600401612228565b602060405180830381865afa1580156113fd573d6000803e3d6000fd5b505050506040513d601f19601f8201168201806040525081019061142191906122ff565b905061271081116114445760405162461bcd60e51b815260040161088490612568565b6000805b8481101561153c576127108387838151811061146657611466612335565b602002602001015161147891906123cb565b61148291906123ea565b9150836001600160a01b031663a9059cbb8883815181106114a5576114a5612335565b6020026020010151846040518363ffffffff1660e01b81526004016114cb929190611f2b565b6020604051808303816000875af11580156114ea573d6000803e3d6000fd5b505050506040513d601f19601f8201168201806040525081019061150e91906125ab565b61152a5760405162461bcd60e51b8152600401610884906125cd565b8061153481612457565b915050611448565b5050505050505050565b60006115506119e2565b9050600061155c611acd565b905060008080805b865181101561138a5786818151811061157f5761157f612335565b60200260200101519350836001600160a01b03166370a08231306040518263ffffffff1660e01b81526004016115b59190612228565b602060405180830381865afa1580156115d2573d6000803e3d6000fd5b505050506040513d601f19601f820116820180604052508101906115f691906122ff565b925061271083116116195760405162461bcd60e51b815260040161088490612568565b60005b8651811015611711576127108487838151811061163b5761163b612335565b602002602001015161164d91906123cb565b61165791906123ea565b9250846001600160a01b031663a9059cbb88838151811061167a5761167a612335565b6020026020010151856040518363ffffffff1660e01b81526004016116a0929190611f2b565b6020604051808303816000875af11580156116bf573d6000803e3d6000fd5b505050506040513d601f19601f820116820180604052508101906116e391906125ab565b6116ff5760405162461bcd60e51b8152600401610884906125cd565b8061170981612457565b91505061161c565b508061171c81612457565b915050611564565b7faee4e97c19ce50ea5345ba9751676d533a3a7b99c3568901208f92f9eea6a7f25490565b600080309050806001600160a01b0316638da5cb5b6040518163ffffffff1660e01b8152600401602060405180830381865afa15801561178d573d6000803e3d6000fd5b505050506040513d601f19601f820116820180604052508101906117b19190612318565b6001600160a01b0316336001600160a01b031614806118425750806001600160a01b031663f851a4406040518163ffffffff1660e01b8152600401602060405180830381865afa158015611809573d6000803e3d6000fd5b505050506040513d601f19601f8201168201806040525081019061182d9190612318565b6001600160a01b0316336001600160a01b0316145b806118b357506118b3816001600160a01b03166336afc6fa6040518163ffffffff1660e01b8152600401602060405180830381865afa158015611889573d6000803e3d6000fd5b505050506040513d601f19601f820116820180604052508101906118ad9190612318565b33611c0f565b91505090565b80517fda9d0b1bc91e594968e30b896be60318d483303fc3ba08af8ac989d483bdd7ca818155906000805b8281101561194a57604080516020810183905290810185905260600160405160208183030381529060405280519060200120935084818151811061192a5761192a612335565b60200260200101519150818455808061194290612457565b9150506118e4565b5050505050565b80517f7862b872ab9e3483d8176282b22f4ac86ad99c9035b3f794a541d84a66004fa2818155906000805b8281101561194a5760408051602081018390529081018590526060016040516020818303038152906040528051906020012093508481815181106119c2576119c2612335565b6020026020010151915081845580806119da90612457565b91505061197c565b7fda9d0b1bc91e594968e30b896be60318d483303fc3ba08af8ac989d483bdd7ca805460609190806001600160401b03811115611a2157611a21611d57565b604051908082528060200260200182016040528015611a4a578160200160208202803683370190505b5092506000805b82811015611ac65760408051602081018390529081018590526060016040516020818303038152906040528051906020012093508354915081858281518110611a9c57611a9c612335565b6001600160a01b039092166020928302919091019091015280611abe81612457565b915050611a51565b5050505090565b7f7862b872ab9e3483d8176282b22f4ac86ad99c9035b3f794a541d84a66004fa2805460609190806001600160401b03811115611b0c57611b0c611d57565b604051908082528060200260200182016040528015611b35578160200160208202803683370190505b5092506000805b82811015611ac65760408051602081018390529081018590526060016040516020818303038152906040528051906020012093508354915081858281518110611b8757611b87612335565b602090810291909101015280611b9c81612457565b915050611b3c565b6000806001836040516020016111209190612604565b6000600183604051602001611bcf919061251c565b6040516020818303038152906040528051906020012060001c611bf2919061249b565b919091555050565b6000600183604051602001611bcf9190612545565b60006001600160a01b038316611c2757506000610744565b604051637f247e4960e01b81526001600160a01b03841690637f247e4990611c53908590600401612228565b602060405180830381865afa158015611c70573d6000803e3d6000fd5b505050506040513d601f19601f82011682018060405250810190610c4b91906125ab565b600060208284031215611ca657600080fd5b81356001600160e01b031981168114610c4b57600080fd5b600060208284031215611cd057600080fd5b5035919050565b600081518084526020808501945080840160005b83811015611d0757815187529582019590820190600101611ceb565b509495945050505050565b602081526000610c4b6020830184611cd7565b6001600160a01b038116811461076d57600080fd5b600060208284031215611d4c57600080fd5b8135610c4b81611d25565b634e487b7160e01b600052604160045260246000fd5b604051601f8201601f191681016001600160401b0381118282101715611d9557611d95611d57565b604052919050565b600082601f830112611dae57600080fd5b81356001600160401b03811115611dc757611dc7611d57565b611dda601f8201601f1916602001611d6d565b818152846020838601011115611def57600080fd5b816020850160208301376000918101602001919091529392505050565b600060208284031215611e1e57600080fd5b81356001600160401b03811115611e3457600080fd5b611e4084828501611d9d565b949350505050565b60006001600160401b03821115611e6157611e61611d57565b5060051b60200190565b60006020808385031215611e7e57600080fd5b82356001600160401b03811115611e9457600080fd5b8301601f81018513611ea557600080fd5b8035611eb8611eb382611e48565b611d6d565b81815260059190911b82018301908381019087831115611ed757600080fd5b928401925b82841015611efe578335611eef81611d25565b82529284019290840190611edc565b979650505050505050565b60008060408385031215611f1c57600080fd5b50508035926020909101359150565b6001600160a01b03929092168252602082015260400190565b600082601f830112611f5557600080fd5b81356020611f65611eb383611e48565b82815260059290921b84018101918181019086841115611f8457600080fd5b8286015b84811015611f9f5780358352918301918301611f88565b509695505050505050565b60008060408385031215611fbd57600080fd5b82356001600160401b0380821115611fd457600080fd5b818501915085601f830112611fe857600080fd5b81356020611ff8611eb383611e48565b82815260059290921b8401810191818101908984111561201757600080fd5b948201945b8386101561203e57853561202f81611d25565b8252948201949082019061201c565b9650508601359250508082111561205457600080fd5b5061206185828601611f44565b9150509250929050565b6000602080838503121561207e57600080fd5b82356001600160401b038082111561209557600080fd5b818501915085601f8301126120a957600080fd5b81356120b7611eb382611e48565b81815260059190911b830184019084810190888311156120d657600080fd5b8585015b8381101561210e578035858111156120f25760008081fd5b6121008b89838a0101611d9d565b8452509186019186016120da565b5098975050505050505050565b60008060006060848603121561213057600080fd5b833561213b81611d25565b95602085013595506040909401359392505050565b600081518084526020808501945080840160005b83811015611d075781516001600160a01b031687529582019590820190600101612164565b60408152600061219c6040830185612150565b82810360208401526121ae8185611cd7565b95945050505050565b600080602083850312156121ca57600080fd5b82356001600160401b03808211156121e157600080fd5b818501915085601f8301126121f557600080fd5b81358181111561220457600080fd5b86602082850101111561221657600080fd5b60209290920196919550909350505050565b6001600160a01b0391909116815260200190565b6000806040838503121561224f57600080fd5b823561225a81611d25565b946020939093013593505050565b602081526000610c4b6020830184612150565b60008060006060848603121561229057600080fd5b8335925060208401356122a281611d25565b929592945050506040919091013590565b60005b838110156122ce5781810151838201526020016122b6565b838111156122dd576000848401525b50505050565b600082516122f58184602087016122b3565b9190910192915050565b60006020828403121561231157600080fd5b5051919050565b60006020828403121561232a57600080fd5b8151610c4b81611d25565b634e487b7160e01b600052603260045260246000fd5b602081526000825180602084015261236a8160408501602087016122b3565b601f01601f19169190910160400192915050565b6020808252601d908201527f504131443a20546f6b656e2061646472657373206e6f7420666f756e64000000604082015260600190565b634e487b7160e01b600052601160045260246000fd5b60008160001904831182151516156123e5576123e56123b5565b500290565b60008261240757634e487b7160e01b600052601260045260246000fd5b500490565b602080825260199082015278282098a21d1031b0b63632b9103737ba1030b71037bbb732b960391b604082015260600190565b60008219821115612452576124526123b5565b500190565b600060001982141561246b5761246b6123b5565b5060010190565b6c32b4b8189c9b1b97282098a21760991b81528183600d83013760009101600d01908152919050565b6000828210156124ad576124ad6123b5565b500390565b6000606082018583526020606081850152818651808452608086019150828801935060005b818110156124fc5784516001600160a01b0316835293830193918301916001016124d7565b505084810360408601526125108187611cd7565b98975050505050505050565b7432b4b8189c9b1b97282098a2173932b1b2b4bb32b960591b8152601581019190915260350190565b6e0656970313936372e504131442e627608c1b8152600f810191909152602f0190565b60208082526023908201527f504131443a204e6f7420656e6f75676820746f6b656e7320746f207472616e736040820152623332b960e91b606082015260800190565b6000602082840312156125bd57600080fd5b81518015158114610c4b57600080fd5b6020808252601d908201527f504131443a20436f756c646e2774207472616e7366657220746f6b656e000000604082015260600190565b78656970313936372e504131442e746f6b656e4164647265737360381b8152600082516126388160198501602087016122b3565b919091016019019291505056fea264697066735822122073aab647906265e2cdb68158c7b35db3dfb1fb6eb273c99c5f7d600c8dbda7f664736f6c634300080c0033",
  "devdoc": {
    "author": "CXIP-Labs",
    "details": "This smart contract is not intended to be used directly. Apply it to any of your ERC721 or ERC1155 smart contracts through a delegatecall fallback.",
    "events": {
      "SecondarySaleFees(uint256,address[],uint256[])": {
        "details": "Emits event in order to comply with Rarible V1 royalty spec.",
        "params": {
          "bps": "Uint256 array of base points(percentages) that each wallet(specified in recipients) will receive from the royalty payouts. Make sure that all the base points add up to a total of 10000.",
          "recipients": "Address array of wallets that will receive tha royalties.",
          "tokenId": "Specific token id for which royalty info is being set, set as 0 for all tokens inside of the smart contract."
        }
      }
    },
    "kind": "dev",
    "methods": {
      "configurePayouts(address[],uint256[])": {
        "details": "Function can only we called by owner, admin, or identity wallet.Addresses and bps arrays must be equal length. Bps values added together must equal 10000 exactly.",
        "params": {
          "addresses": "An array of all the addresses that will be receiving royalty payouts.",
          "bps": "An array of the percentages that each address will receive from the royalty payouts."
        }
      },
      "constructor": {
        "details": "Since the smart contract is being used inside of a fallback context, the constructor function is not being used."
      },
      "getEthPayout()": {
        "details": "Distribute all the ETH(minus gas fees) to payout recipients."
      },
      "getPayoutInfo()": {
        "details": "These are the recipients that will be getting royalty payouts.",
        "returns": {
          "addresses": "An array of all the addresses that will be receiving royalty payouts.",
          "bps": "An array of the percentages that each address will receive from the royalty payouts."
        }
      },
      "getStorageSlot(string)": {
        "details": "Convert a string to a bytes32 storage slot",
        "params": {
          "slot": "The string name of storage slot(without the 'eip1967.PA1D.' prefix)"
        },
        "returns": {
          "_0": "A bytes32 reference to the storage slot"
        }
      },
      "getTokenAddress(string)": {
        "details": "Used only to identify really major/common tokens. Avoid using due to gas usages.",
        "params": {
          "tokenName": "The ticker symbol of the token. For example \"USDC\" or \"DAI\"."
        },
        "returns": {
          "_0": "The smart contract address of the token ticker symbol. Or zero address if not found."
        }
      },
      "getTokenPayout(address)": {
        "details": "Contract owner, admin, identity wallet, and payout recipients can call this function.",
        "params": {
          "tokenAddress": "An address of the token for which to issue payouts for."
        }
      },
      "getTokenPayoutByName(string)": {
        "details": "Contract owner, admin, identity wallet, and payout recipients can call this function.Avoid using this function at all costs, due to high gas usage, and no guarantee for token support.",
        "params": {
          "tokenName": "A string of the token name for which to issue payouts for."
        }
      },
      "getTokensPayout(address[])": {
        "details": "Each token balance must be equal or greater than 10000. Otherwise calculating BP is difficult.",
        "params": {
          "tokenAddresses": "An address array of tokens to issue payouts for."
        }
      },
      "getTokensPayoutByName(string[])": {
        "details": "Each token balance must be equal or greater than 10000. Otherwise calculating BP is difficult.Avoid using this function at all costs, due to high gas usage, and no guarantee for token support.",
        "params": {
          "tokenNames": "A string array of token names to issue payouts for."
        }
      },
      "init(uint256,address,uint256)": {
        "details": "Use the init function once, when deploying or initialising your overlying smart contract.Take great care to not expose this function to your other public functions.",
        "params": {
          "bp": "The default base points(percentage) for royalty payouts.",
          "receiver": "The address for the default receiver of all royalty payouts. Recommended to use the overlying smart contract address. This will allow the PA1D smart contract to handle all royalty settings, receipt, and distribution.",
          "tokenId": "Specify a particular token id only if using the init function for a special case. Otherwise leave empty(0)."
        }
      },
      "setRoyalties(uint256,address,uint256)": {
        "details": "Take great care to not make this function accessible by other public functions in your overlying smart contract.",
        "params": {
          "bp": "Uint256 of royalty percentage, provided in base points format.",
          "receiver": "Wallet or smart contract that will receive the royalty payouts.",
          "tokenId": "Set a specific token id, or leave at 0 to set as default parameters."
        }
      },
      "supportsInterface(bytes4)": {
        "details": "Provides the supported interface ids that this contract implements.",
        "params": {
          "interfaceId": "Bytes4 of the interface, derived through bytes4(keccak256('sampleFunction(uin256,address)'))."
        },
        "returns": {
          "_0": "True if function is supported/implemented, false if not."
        }
      }
    },
    "title": "PA1D (CXIP)",
    "version": 1
  },
  "userdoc": {
    "events": {
      "SecondarySaleFees(uint256,address[],uint256[])": {
        "notice": "Event emitted when setting/updating royalty info/fees. This is used by Rarible V1."
      }
    },
    "kind": "user",
    "methods": {
      "configurePayouts(address[],uint256[])": {
        "notice": "Set the wallets and percentages for royalty payouts."
      },
      "constructor": {
        "notice": "Constructor is empty and not utilised."
      },
      "getEthPayout()": {
        "notice": "Get payout of all ETH in smart contract."
      },
      "getPayoutInfo()": {
        "notice": "Show the wallets and percentages of payout recipients."
      },
      "getStorageSlot(string)": {
        "notice": "Get the storage slot for given string"
      },
      "getTokenAddress(string)": {
        "notice": "Get the smart contract address of a token by common name."
      },
      "getTokenPayout(address)": {
        "notice": "Get payout for a specific token address. Token must have a positive balance!"
      },
      "getTokenPayoutByName(string)": {
        "notice": "Get payout for a specific token name. Token must have a positive balance!"
      },
      "getTokensPayout(address[])": {
        "notice": "Get payouts for tokens listed by address. Tokens must have a positive balance!"
      },
      "getTokensPayoutByName(string[])": {
        "notice": "Get payouts for tokens listed by name. Tokens must have a positive balance!"
      },
      "init(uint256,address,uint256)": {
        "notice": "Initialise the smart contract on source smart contract deployment/initialisation."
      },
      "setRoyalties(uint256,address,uint256)": {
        "notice": "Set the royalty information for entire contract, or a specific token."
      },
      "supportsInterface(bytes4)": {
        "notice": "Inform about supported interfaces(eip-165)."
      }
    },
    "notice": "A smart contract for providing royalty info, collecting royalties, and distributing it to configured payout wallets.",
    "version": 1
  },
  "storageLayout": {
    "storage": [],
    "types": null
  }
}